{"contracts/PredictionMarket.sol":{"PredictionMarket":{"abi":[{"inputs":[{"internalType":"contract IERC20","name":"_collateralToken","type":"address"},{"internalType":"uint256","name":"_virtualLiquidityPerSide","type":"uint256"}],"stateMutability":"nonpayable","type":"constructor"},{"inputs":[{"internalType":"address","name":"owner","type":"address"}],"name":"OwnableInvalidOwner","type":"error"},{"inputs":[{"internalType":"address","name":"account","type":"address"}],"name":"OwnableUnauthorizedAccount","type":"error"},{"inputs":[],"name":"ReentrancyGuardReentrantCall","type":"error"},{"inputs":[{"internalType":"address","name":"token","type":"address"}],"name":"SafeERC20FailedOperation","type":"error"},{"anonymous":false,"inputs":[{"indexed":true,"internalType":"uint256","name":"assetId","type":"uint256"},{"indexed":false,"internalType":"string","name":"symbol","type":"string"},{"indexed":true,"internalType":"address","name":"priceFeed","type":"address"}],"name":"AssetAdded","type":"event"},{"anonymous":false,"inputs":[{"indexed":true,"internalType":"address","name":"previousOwner","type":"address"},{"indexed":true,"internalType":"address","name":"newOwner","type":"address"}],"name":"OwnershipTransferred","type":"event"},{"anonymous":false,"inputs":[{"indexed":true,"internalType":"uint256","name":"roundId","type":"uint256"},{"indexed":true,"internalType":"address","name":"user","type":"address"},{"indexed":false,"internalType":"bool","name":"isUp","type":"bool"},{"indexed":false,"internalType":"uint256","name":"amountIn","type":"uint256"},{"indexed":false,"internalType":"uint256","name":"sharesOut","type":"uint256"}],"name":"PositionBought","type":"event"},{"anonymous":false,"inputs":[{"indexed":true,"internalType":"uint256","name":"roundId","type":"uint256"},{"indexed":true,"internalType":"address","name":"user","type":"address"},{"indexed":false,"internalType":"bool","name":"isUp","type":"bool"},{"indexed":false,"internalType":"uint256","name":"sharesIn","type":"uint256"},{"indexed":false,"internalType":"uint256","name":"amountOut","type":"uint256"}],"name":"PositionSold","type":"event"},{"anonymous":false,"inputs":[{"indexed":true,"internalType":"uint256","name":"roundId","type":"uint256"},{"indexed":true,"internalType":"uint256","name":"assetId","type":"uint256"},{"indexed":false,"internalType":"uint256","name":"startPrice","type":"uint256"},{"indexed":false,"internalType":"uint256","name":"endPrice","type":"uint256"},{"indexed":false,"internalType":"bool","name":"upWins","type":"bool"}],"name":"RoundResolved","type":"event"},{"anonymous":false,"inputs":[{"indexed":true,"internalType":"uint256","name":"roundId","type":"uint256"},{"indexed":true,"internalType":"uint256","name":"assetId","type":"uint256"},{"indexed":false,"internalType":"string","name":"symbol","type":"string"},{"indexed":false,"internalType":"uint256","name":"startPrice","type":"uint256"},{"indexed":false,"internalType":"uint256","name":"startTime","type":"uint256"},{"indexed":false,"internalType":"uint256","name":"endTime","type":"uint256"}],"name":"RoundStarted","type":"event"},{"anonymous":false,"inputs":[{"indexed":true,"internalType":"address","name":"settlementOperator","type":"address"}],"name":"SettlementOperatorSet","type":"event"},{"anonymous":false,"inputs":[{"indexed":true,"internalType":"uint256","name":"roundId","type":"uint256"},{"indexed":true,"internalType":"address","name":"user","type":"address"},{"indexed":false,"internalType":"uint256","name":"amount","type":"uint256"}],"name":"WinningsClaimed","type":"event"},{"inputs":[],"name":"BPS","outputs":[{"internalType":"uint256","name":"","type":"uint256"}],"stateMutability":"view","type":"function"},{"inputs":[],"name":"MARKET_DURATION","outputs":[{"internalType":"uint256","name":"","type":"uint256"}],"stateMutability":"view","type":"function"},{"inputs":[],"name":"SELL_FEE_BPS","outputs":[{"internalType":"uint256","name":"","type":"uint256"}],"stateMutability":"view","type":"function"},{"inputs":[{"internalType":"string","name":"symbol","type":"string"},{"internalType":"address","name":"priceFeedAddress","type":"address"}],"name":"addAsset","outputs":[{"internalType":"uint256","name":"assetId","type":"uint256"}],"stateMutability":"nonpayable","type":"function"},{"inputs":[{"internalType":"uint256","name":"roundId","type":"uint256"},{"internalType":"bool","name":"isUp","type":"bool"},{"internalType":"uint256","name":"amountIn","type":"uint256"}],"name":"buyPosition","outputs":[{"internalType":"uint256","name":"sharesOut","type":"uint256"}],"stateMutability":"nonpayable","type":"function"},{"inputs":[{"internalType":"address","name":"buyer","type":"address"},{"internalType":"uint256","name":"roundId","type":"uint256"},{"internalType":"bool","name":"isUp","type":"bool"},{"internalType":"uint256","name":"amountIn","type":"uint256"}],"name":"buyPositionFor","outputs":[{"internalType":"uint256","name":"sharesOut","type":"uint256"}],"stateMutability":"nonpayable","type":"function"},{"inputs":[{"internalType":"bytes","name":"","type":"bytes"}],"name":"checkUpkeep","outputs":[{"internalType":"bool","name":"upkeepNeeded","type":"bool"},{"internalType":"bytes","name":"performData","type":"bytes"}],"stateMutability":"view","type":"function"},{"inputs":[{"internalType":"uint256","name":"roundId","type":"uint256"}],"name":"claimWinnings","outputs":[{"internalType":"uint256","name":"winnings","type":"uint256"}],"stateMutability":"nonpayable","type":"function"},{"inputs":[{"internalType":"address","name":"claimer","type":"address"},{"internalType":"uint256","name":"roundId","type":"uint256"}],"name":"claimWinningsFor","outputs":[{"internalType":"uint256","name":"winnings","type":"uint256"}],"stateMutability":"nonpayable","type":"function"},{"inputs":[],"name":"collateralToken","outputs":[{"internalType":"contract IERC20","name":"","type":"address"}],"stateMutability":"view","type":"function"},{"inputs":[{"internalType":"uint256","name":"assetId","type":"uint256"}],"name":"getAsset","outputs":[{"internalType":"string","name":"symbol","type":"string"},{"internalType":"address","name":"priceFeed","type":"address"},{"internalType":"uint256","name":"currentRoundId","type":"uint256"},{"internalType":"bool","name":"enabled","type":"bool"}],"stateMutability":"view","type":"function"},{"inputs":[],"name":"getAssetCount","outputs":[{"internalType":"uint256","name":"","type":"uint256"}],"stateMutability":"view","type":"function"},{"inputs":[{"internalType":"uint256","name":"assetId","type":"uint256"}],"name":"getAssetRoundIds","outputs":[{"internalType":"uint256[]","name":"","type":"uint256[]"}],"stateMutability":"view","type":"function"},{"inputs":[{"internalType":"uint256","name":"assetId","type":"uint256"}],"name":"getCurrentPrice","outputs":[{"internalType":"uint256","name":"","type":"uint256"}],"stateMutability":"view","type":"function"},{"inputs":[{"internalType":"uint256","name":"roundId","type":"uint256"}],"name":"getRoundInfo","outputs":[{"internalType":"uint256","name":"assetId","type":"uint256"},{"internalType":"string","name":"asset","type":"string"},{"internalType":"uint256","name":"roundNumber","type":"uint256"},{"internalType":"uint256","name":"startTime","type":"uint256"},{"internalType":"uint256","name":"endTime","type":"uint256"},{"internalType":"uint256","name":"startPrice","type":"uint256"},{"internalType":"uint256","name":"endPrice","type":"uint256"},{"internalType":"bool","name":"resolved","type":"bool"},{"internalType":"bool","name":"upWins","type":"bool"},{"internalType":"uint256","name":"upPool","type":"uint256"},{"internalType":"uint256","name":"downPool","type":"uint256"},{"internalType":"uint256","name":"upShares","type":"uint256"},{"internalType":"uint256","name":"downShares","type":"uint256"},{"internalType":"uint256","name":"collateralPool","type":"uint256"},{"internalType":"uint256","name":"currentPrice","type":"uint256"},{"internalType":"address","name":"priceFeed","type":"address"}],"stateMutability":"view","type":"function"},{"inputs":[{"internalType":"uint256","name":"roundId","type":"uint256"},{"internalType":"address","name":"user","type":"address"}],"name":"getUserPosition","outputs":[{"internalType":"uint256","name":"upShares","type":"uint256"},{"internalType":"uint256","name":"downShares","type":"uint256"},{"internalType":"bool","name":"claimed","type":"bool"}],"stateMutability":"view","type":"function"},{"inputs":[],"name":"owner","outputs":[{"internalType":"address","name":"","type":"address"}],"stateMutability":"view","type":"function"},{"inputs":[{"internalType":"bytes","name":"","type":"bytes"}],"name":"performUpkeep","outputs":[],"stateMutability":"nonpayable","type":"function"},{"inputs":[{"internalType":"uint256","name":"roundId","type":"uint256"},{"internalType":"bool","name":"isUp","type":"bool"},{"internalType":"uint256","name":"amountIn","type":"uint256"}],"name":"quoteBuy","outputs":[{"internalType":"uint256","name":"","type":"uint256"}],"stateMutability":"view","type":"function"},{"inputs":[{"internalType":"uint256","name":"roundId","type":"uint256"},{"internalType":"bool","name":"isUp","type":"bool"},{"internalType":"uint256","name":"sharesIn","type":"uint256"}],"name":"quoteSell","outputs":[{"internalType":"uint256","name":"","type":"uint256"}],"stateMutability":"view","type":"function"},{"inputs":[],"name":"renounceOwnership","outputs":[],"stateMutability":"nonpayable","type":"function"},{"inputs":[{"internalType":"uint256","name":"assetId","type":"uint256"}],"name":"resolveCurrentRound","outputs":[{"internalType":"uint256","name":"nextRoundId","type":"uint256"}],"stateMutability":"nonpayable","type":"function"},{"inputs":[],"name":"resolveExpiredRounds","outputs":[],"stateMutability":"nonpayable","type":"function"},{"inputs":[{"internalType":"uint256[]","name":"assetIds","type":"uint256[]"},{"internalType":"uint256[]","name":"endPrices","type":"uint256[]"}],"name":"resolveExpiredRoundsWithPrices","outputs":[],"stateMutability":"nonpayable","type":"function"},{"inputs":[{"internalType":"uint256","name":"roundId","type":"uint256"}],"name":"resolveRound","outputs":[{"internalType":"uint256","name":"nextRoundId","type":"uint256"}],"stateMutability":"nonpayable","type":"function"},{"inputs":[],"name":"roundCounter","outputs":[{"internalType":"uint256","name":"","type":"uint256"}],"stateMutability":"view","type":"function"},{"inputs":[{"internalType":"uint256","name":"roundId","type":"uint256"},{"internalType":"bool","name":"isUp","type":"bool"},{"internalType":"uint256","name":"sharesIn","type":"uint256"}],"name":"sellPosition","outputs":[{"internalType":"uint256","name":"amountOut","type":"uint256"}],"stateMutability":"nonpayable","type":"function"},{"inputs":[{"internalType":"address","name":"seller","type":"address"},{"internalType":"uint256","name":"roundId","type":"uint256"},{"internalType":"bool","name":"isUp","type":"bool"},{"internalType":"uint256","name":"sharesIn","type":"uint256"}],"name":"sellPositionFor","outputs":[{"internalType":"uint256","name":"amountOut","type":"uint256"}],"stateMutability":"nonpayable","type":"function"},{"inputs":[{"internalType":"address","name":"newSettlementOperator","type":"address"}],"name":"setSettlementOperator","outputs":[],"stateMutability":"nonpayable","type":"function"},{"inputs":[],"name":"settlementOperator","outputs":[{"internalType":"address","name":"","type":"address"}],"stateMutability":"view","type":"function"},{"inputs":[{"internalType":"address","name":"newOwner","type":"address"}],"name":"transferOwnership","outputs":[],"stateMutability":"nonpayable","type":"function"},{"inputs":[],"name":"virtualLiquidityPerSide","outputs":[{"internalType":"uint256","name":"","type":"uint256"}],"stateMutability":"view","type":"function"}],"evm":{"bytecode":{"linkReferences":{},"object":"60c0346101d457601f61250f38819003918201601f19168301916001600160401b038311848410176101d85780849260409485528339810103126101d45780516001600160a01b038116918282036101d457602001519133156101c1575f8054336001600160a01b0319821681178355604051939290916001600160a01b0316907f8be0079c531659141344cd1fd0a4f28419497f9722a3daafe3b4186f6b6457e09080a360017f9b779b17422d0df92223018b32b4d1fa46e071723d6817e2486d003becc55f00551561018a575081156101515760805260a052600180546001600160a01b03191633908117909155604051907f5c78ba5c8fcd9db602e671b13bedb697b0aec665653b646b0d715dcea2937ea15f80a261232290816101ed82396080518181816104ad0152818161183f01528181611a900152611f32015260a0518181816102c60152611e480152f35b60405162461bcd60e51b8152602060048201526011602482015270496e76616c6964206c697175696469747960781b6044820152606490fd5b62461bcd60e51b8152602060048201526012602482015271125b9d985b1a590818dbdb1b185d195c985b60721b6044820152606490fd5b631e4fbdf760e01b5f525f60045260245ffd5b5f80fd5b634e487b7160e01b5f52604160045260245ffdfe6080806040526004361015610012575f80fd5b5f3560e01c9081631b6984e8146110e157508063249d39e9146110c557806330dc389c146110a9578063448758d514610ffc5780634585e33b14610f405780635aad56af14610ea4578063627d8e3314610dfd578063650b872514610ddf578063677bd9ff14610db85780636e04ff0d14610d5e578063715018a614610d07578063717bd21d14610cee57806379a7dfbf14610c535780637be7d78614610c2157806380cac3ee14610bff578063869da9db14610b8c57806388c3ffb014610a475780638da5cb5b14610a2057806394af8201146109dd5780639731aa2e146109c25780639b40f28d14610856578063a0aead4d14610839578063adc02a64146104dc578063b2016bd414610498578063c55d0f561461045c578063d62ab79a1461040e578063d7253db914610368578063eac8f5b8146102e9578063f06c0f56146102af578063f2fde38b1461022a578063f77986711461019d5763febc14b11461017c575f80fd5b34610199575f366003190112610199576020600554604051908152f35b5f80fd5b34610199575f366003190112610199575f5b600254811015610228578060026101c760019361120d565b5001548015158061020e575b806101f5575b6101e5575b50016101af565b6101ee90611399565b50826101de565b50805f526003602052600360405f2001544210156101d9565b50805f52600360205260ff600660405f20015416156101d3565b005b3461019957602036600319011261019957610243611104565b61024b611637565b6001600160a01b0316801561029c575f80546001600160a01b03198116831782556001600160a01b0316907f8be0079c531659141344cd1fd0a4f28419497f9722a3daafe3b4186f6b6457e09080a3005b631e4fbdf760e01b5f525f60045260245ffd5b34610199575f3660031901126101995760206040517f00000000000000000000000000000000000000000000000000000000000000008152f35b346101995760203660031901126101995761035261033761030b60043561120d565b5060018060a01b0360018201541690600281015461033e60ff6003840154169260405195868092611599565b03856113ee565b604051948594608086526080860190611195565b9260208501526040840152151560608301520390f35b34610199576020366003190112610199576004355f52600460205260405f20604051806020835491828152019081935f5260205f20905f5b8181106103f857505050816103b69103826113ee565b604051918291602083019060208452518091526040830191905f5b8181106103df575050500390f35b82518452859450602093840193909201916001016103d1565b82548452602090930192600192830192016103a0565b34610199576020610430610421366111b9565b9161042a61165d565b33611732565b60017f9b779b17422d0df92223018b32b4d1fa46e071723d6817e2486d003becc55f0055604051908152f35b3461019957602036600319011261019957602061049061047d60043561120d565b50600101546001600160a01b0316611c23565b604051908152f35b34610199575f366003190112610199576040517f00000000000000000000000000000000000000000000000000000000000000006001600160a01b03168152602090f35b346101995760403660031901126101995760043567ffffffffffffffff81116101995761050d903690600401611130565b9061051661111a565b61051e611637565b8215610803576001600160a01b03169081156107cf57604051906080820182811067ffffffffffffffff8211176107a85760405267ffffffffffffffff84116107a857604051601f8501601f1916929061057b60208501826113ee565b858152368684011161019957858360208301375f6020878301015281526020810190848252604081015f8152606082019260018452600254600160401b8110156107a8578060016105cf920160025561120d565b9390936107bc575180519067ffffffffffffffff82116107a8576105f38554611561565b601f8111610763575b50602090601f83116001146106fc57600395949392915f91836106f1575b50508160011b915f1990871b1c19161783555b600183019060018060a01b039051166bffffffffffffffffffffffff60a01b825416179055516002820155019051151560ff80198354169116179055600254925f1984019384116106dd5780847f6c60221bfa5c9c4ee8109ba8562fc401aa92a46606a02d979f9de6a8f97c2d0a8760406106ce966106d4985f8360209d8151968f95889687526020829088015283870137840101528101030190a3611c23565b82612113565b50604051908152f35b634e487b7160e01b5f52601160045260245ffd5b015190508b8061061a565b90601f19831691865f52815f20925f5b81811061074b57509160019391856003999897969410610734575b505050811b01835561062d565b01515f1983891b60f8161c191690558b8080610727565b9293602060018192878601518155019501930161070c565b855f5260205f20601f840160051c8101916020851061079e575b601f0160051c01905b81811061079357506105fc565b5f8155600101610786565b909150819061077d565b634e487b7160e01b5f52604160045260245ffd5b634e487b7160e01b5f525f60045260245ffd5b60405162461bcd60e51b815260206004820152600c60248201526b125b9d985b1a59081999595960a21b6044820152606490fd5b60405162461bcd60e51b815260206004820152600e60248201526d125b9d985b1a59081cde5b589bdb60921b6044820152606490fd5b34610199575f366003190112610199576020600254604051908152f35b346101995760403660031901126101995760043567ffffffffffffffff8111610199576108879036906004016111dc565b9060243567ffffffffffffffff8111610199576108a89036906004016111dc565b9060018060a01b035f5416331480156109ae575b6108c590611299565b818403610977575f935f5b8181106108e05761022886611259565b60026109026108f0838589611627565b356108fd83548210611525565b61120d565b5001548015158061095d575b80610944575b610922575b506001016108d0565b81965061093361093a928686611627565b3590611d35565b5060019485610919565b50805f526003602052600360405f200154421015610914565b50805f52600360205260ff600660405f200154161561090e565b60405162461bcd60e51b815260206004820152600f60248201526e098cadccee8d040dad2e6dac2e8c6d608b1b6044820152606490fd5b506001546001600160a01b031633146108bc565b34610199575f366003190112610199576020604051601e8152f35b34610199576020612710610a1781610a11610a0b6109fa366111b9565b92915f526003885260405f20611e43565b906114c1565b046114a9565b04604051908152f35b34610199575f366003190112610199575f546040516001600160a01b039091168152602090f35b34610199576020366003190112610199576004355f52600360205260405f20805490610a728261120d565b506006820154909160ff821615610b705760058101545b600182015492600283015492600381015491600482015490600583015490600784015490600885015492600986015494600a87015496600b0154978c600160a01b600190039060010154169a604051809e610ae5828092611599565b03610aef916113ee565b6040519e8f9e8f9182526020820161020090526102008201610b1091611195565b9d60408201526060015260808d015260a08c015260c08b015260ff8116151560e08b015260081c60ff1615156101008a01526101208901526101408801526101608701526101808601526101a08501526101c08401526101e08301520390f35b6001830154610b87906001600160a01b0316611c23565b610a89565b3461019957604036600319011261019957610ba561111a565b6004355f526003602052600c60405f20019060018060a01b03165f5260205260405f208054610bfb60ff600260018501549401541660405193849384919260409194936060840195845260208401521515910152565b0390f35b34610199576020610430610c12366111b9565b91610c1b61165d565b33611ed9565b346101995760203660031901126101995760206104906002610c4b6004356108fd83548210611525565b500154611399565b3461019957610c613661115e565b90610c6d93929361165d565b5f546001600160a01b031633148015610cda575b610c8a90611299565b6001600160a01b03831615610ca55760209361043093611ed9565b60405162461bcd60e51b815260206004820152600d60248201526c24b73b30b634b210313abcb2b960991b6044820152606490fd5b506001546001600160a01b03163314610c81565b34610199576020610490610d01366111b9565b916114f2565b34610199575f36600319011261019957610d1f611637565b5f80546001600160a01b0319811682556001600160a01b03167f8be0079c531659141344cd1fd0a4f28419497f9722a3daafe3b4186f6b6457e08280a3005b346101995760203660031901126101995760043567ffffffffffffffff811161019957610d8f903690600401611130565b5050610d99611410565b90610bfb60405192839215158352604060208401526040830190611195565b3461019957602036600319011261019957610dd161165d565b6020610430600435336119f7565b34610199576020366003190112610199576020610490600435611399565b3461019957604036600319011261019957610e16611104565b610e1e61165d565b5f546001600160a01b031633148015610e90575b610e3b90611299565b6001600160a01b03811615610e5957610430602091602435906119f7565b60405162461bcd60e51b815260206004820152600f60248201526e24b73b30b634b21031b630b4b6b2b960891b6044820152606490fd5b506001546001600160a01b03163314610e32565b3461019957610eb23661115e565b90610ebe93929361165d565b5f546001600160a01b031633148015610f2c575b610edb90611299565b6001600160a01b03831615610ef65760209361043093611732565b60405162461bcd60e51b815260206004820152600e60248201526d24b73b30b634b21039b2b63632b960911b6044820152606490fd5b506001546001600160a01b03163314610ed2565b346101995760203660031901126101995760043567ffffffffffffffff811161019957610f71903690600401611130565b50505f5f5b600254811015610ff3576002610f8b8261120d565b50015480151580610fd9575b80610fc0575b610fab575b50600101610f76565b610fb6919250611399565b5060019081610fa2565b50805f526003602052600360405f200154421015610f9d565b50805f52600360205260ff600660405f2001541615610f97565b61022882611259565b3461019957602036600319011261019957611015611104565b61101d611637565b6001600160a01b0316801561106457600180546001600160a01b031916821790557f5c78ba5c8fcd9db602e671b13bedb697b0aec665653b646b0d715dcea2937ea15f80a2005b60405162461bcd60e51b815260206004820152601b60248201527f496e76616c696420736574746c656d656e74206f70657261746f7200000000006044820152606490fd5b34610199575f36600319011261019957602060405161012c8152f35b34610199575f3660031901126101995760206040516127108152f35b34610199575f366003190112610199576001546001600160a01b03168152602090f35b600435906001600160a01b038216820361019957565b602435906001600160a01b038216820361019957565b9181601f840112156101995782359167ffffffffffffffff8311610199576020838186019501011161019957565b6080906003190112610199576004356001600160a01b03811681036101995790602435906044358015158103610199579060643590565b805180835260209291819084018484015e5f828201840152601f01601f1916010190565b606090600319011261019957600435906024358015158103610199579060443590565b9181601f840112156101995782359167ffffffffffffffff8311610199576020808501948460051b01011161019957565b6002548110156112455760025f81815291901b7f405787fa12a823e0f2b7631cc41b3ba8828b3321ca811111fa75cd3aa3bb5ace0191565b634e487b7160e01b5f52603260045260245ffd5b1561126057565b60405162461bcd60e51b81526020600482015260116024820152704e6f206578706972656420726f756e647360781b6044820152606490fd5b156112a057565b60405162461bcd60e51b815260206004820152601760248201527f4e6f7420736574746c656d656e74206f70657261746f720000000000000000006044820152606490fd5b156112ec57565b60405162461bcd60e51b815260206004820152600d60248201526c526f756e64206d697373696e6760981b6044820152606490fd5b1561132857565b60405162461bcd60e51b815260206004820152600a602482015269526f756e64206c69766560b01b6044820152606490fd5b1561136157565b60405162461bcd60e51b815260206004820152601060248201526f105b1c9958591e481c995cdbdb1d995960821b6044820152606490fd5b6113eb90805f5260036020526113e561047d60405f206113be600282015415156112e5565b6113ce6003820154421015611321565b6113df60ff6006830154161561135a565b5461120d565b90611d35565b90565b90601f8019910116810190811067ffffffffffffffff8211176107a857604052565b6002545f5b8181106114345750505f9060405161142e6020826113ee565b5f815290565b600261143f8261120d565b500154801515908161148d575b81611473575b5061145f57600101611415565b5050600190602061142e60405191826113ee565b90505f526003602052600360405f2001544210155f611452565b8091505f52600360205260ff600660405f20015416159061144c565b906126f28202918083046126f214901517156106dd57565b818102929181159184041417156106dd57565b81156114de570490565b634e487b7160e01b5f52601260045260245ffd5b90611507915f52600360205260405f20611e43565b61271082029180830461271014901517156106dd576113eb916114d4565b1561152c57565b60405162461bcd60e51b815260206004820152600d60248201526c125b9d985b1a5908185cdcd95d609a1b6044820152606490fd5b90600182811c9216801561158f575b602083101461157b57565b634e487b7160e01b5f52602260045260245ffd5b91607f1691611570565b5f92918154916115a883611561565b80835292600181169081156115fd57506001146115c457505050565b5f9081526020812093945091925b8383106115e3575060209250010190565b6001816020929493945483858701015201910191906115d2565b915050602093945060ff929192191683830152151560051b010190565b919082039182116106dd57565b91908110156112455760051b0190565b5f546001600160a01b0316330361164a57565b63118cdaa760e01b5f523360045260245ffd5b60027f9b779b17422d0df92223018b32b4d1fa46e071723d6817e2486d003becc55f0054146116ac5760027f9b779b17422d0df92223018b32b4d1fa46e071723d6817e2486d003becc55f0055565b633ee5aeb560e01b5f5260045ffd5b156116c257565b60405162461bcd60e51b815260206004820152600e60248201526d149bdd5b99081c995cdbdb1d995960921b6044820152606490fd5b156116ff57565b60405162461bcd60e51b815260206004820152600b60248201526a149bdd5b9908195b99195960aa1b6044820152606490fd5b939293815f52600360205260405f2094611751600287015415156112e5565b61176260ff600688015416156116bb565b611771600387015442106116f8565b80156119c0576001600160a01b0382165f908152600c8701602052604090208415611911578054968288106118dc57600b91855f5260036020526127106117c981610a116117c3600160405f20611e43565b886114c1565b04906117d685839b61161a565b9055600982016117e785825461161a565b905560078201805490918181106118cd5750505f905b555b019182549283881161188f57611836887faada1654951776634696a879ed1112c89caf26784878e51517a1f1b7fabd3d069561161a565b905561186387827f0000000000000000000000000000000000000000000000000000000000000000612294565b60408051951515865260208601929092529084018690526001600160a01b03169280606081015b0390a3565b60405162461bcd60e51b8152602060048201526016602482015275496e73756666696369656e74206c697175696469747960501b6044820152606490fd5b6118d69161161a565b906117fd565b60405162461bcd60e51b815260206004820152600d60248201526c04e6f7420656e6f75676820555609c1b6044820152606490fd5b60010180549682881061198957600b91855f52600360205261271061194081610a116117c35f60408120611e43565b049061194d85839b61161a565b9055600a820161195e85825461161a565b9055600882018054909181811061197a5750505f905b556117ff565b6119839161161a565b90611974565b60405162461bcd60e51b815260206004820152600f60248201526e2737ba1032b737bab3b4102227aba760891b6044820152606490fd5b60405162461bcd60e51b815260206004820152600f60248201526e14da185c995cc81c995c5d5a5c9959608a1b6044820152606490fd5b919091825f52600360205260405f20600681015460ff811615611bd85760018060a01b0383165f52600c820160205260405f20600281019081549260ff8416611ba15760081c60ff16908115611b975754905b15611b8c576009840154925b8115611b53578315611b2157611a8294611a7d936001600b9360ff191617905501546114c1565b6114d4565b928315611aee57611ab484837f0000000000000000000000000000000000000000000000000000000000000000612294565b6040518481526001600160a01b03909216917f5380cf6fe903b40c6d5a9e0dfbca2f3a423f0a21520b4d5947ed5169bdba946d90602090a3565b60405162461bcd60e51b815260206004820152600b60248201526a4e6f2077696e6e696e677360a81b6044820152606490fd5b60405162461bcd60e51b815260206004820152600a6024820152694e6f2077696e6e65727360b01b6044820152606490fd5b60405162461bcd60e51b81526020600482015260116024820152704e6f2077696e6e696e672073686172657360781b6044820152606490fd5b600a84015492611a56565b6001015490611a4a565b60405162461bcd60e51b815260206004820152600f60248201526e105b1c9958591e4818db185a5b5959608a1b6044820152606490fd5b60405162461bcd60e51b815260206004820152600c60248201526b139bdd081c995cdbdb1d995960a21b6044820152606490fd5b519069ffffffffffffffffffff8216820361019957565b604051633fabe5a360e21b81529060a090829060049082906001600160a01b03165afa8015611d2a575f915f91611cd6575b505f821315611c9a5715611c665790565b60405162461bcd60e51b815260206004820152600c60248201526b5374616c65206f7261636c6560a01b6044820152606490fd5b60405162461bcd60e51b8152602060048201526014602482015273496e76616c6964206f7261636c6520707269636560601b6044820152606490fd5b91505060a0813d60a011611d22575b81611cf260a093836113ee565b8101031261019957611d0381611c0c565b506020810151611d1a608060608401519301611c0c565b50905f611c55565b3d9150611ce5565b6040513d5f823e3d90fd5b90815f52600360205260405f20611d51600282015415156112e5565b611d616003820154421015611321565b6006810192835490611d7660ff83161561135a565b8315611dfd577f18b8f645d0c683e042c20c6ed5ed8044fc6b4263380663fc67242d9bdda24f1a60ff6113eb9685876005611df5980155600160048201549661ff00888b1160081b169061ffff19161717809255549586958860405194859460081c169184919260409194936060840195845260208401521515910152565b0390a3612113565b60405162461bcd60e51b8152602060048201526011602482015270496e76616c696420656e6420707269636560781b6044820152606490fd5b919082018092116106dd57565b611e807f00000000000000000000000000000000000000000000000000000000000000006008611e77600785015483611e36565b93015490611e36565b611e8a8183611e36565b9215611ed15750905b61271082029180830461271014901517156106dd57611eb1916114d4565b8015611ecb57612710811015611ec45790565b5061270f90565b50600190565b905090611e93565b919392815f52600360205260405f2094611ef8600287015415156112e5565b611f0960ff600688015416156116bb565b611f18600387015442106116f8565b81156120dc57611f298282856114f2565b9586156120ab577f0000000000000000000000000000000000000000000000000000000000000000604051956323b872dd60e01b5f5260018060a01b03169586600452306024528460445260205f60648180865af19060015f511482161561208a575b6040525f6060521561206a575090600b7f165674d0275cf6b01f7d28d8814dbd4be3cfa67ceb12934b78c648072470a0a69392865f52600c810160205260405f20835f1461203357611fdf8a8254611e36565b905560098101611ff08a8254611e36565b905560078101612001858254611e36565b90555b01612010838254611e36565b90556040805191151582526020820192909252908101869052806060810161188a565b6001016120418a8254611e36565b9055600a81016120528a8254611e36565b905560088101612063858254611e36565b9055612004565b635274afe760e01b5f9081526001600160a01b0391909116600452602490fd5b9060018115166120a257823b15153d15161690611f8c565b503d5f823e3d90fd5b60405162461bcd60e51b81526020600482015260096024820152684e6f2073686172657360b81b6044820152606490fd5b60405162461bcd60e51b815260206004820152600f60248201526e105b5bdd5b9d081c995c5d5a5c9959608a1b6044820152606490fd5b91909161211f8161120d565b5060ff6003820154161561225e578315612223576005545f1981146106dd5760010190816005558194825f52600360205260405f2091848355845f52600460205260405f2054600181018091116106dd576001840155600283019142835561012c4201938442116106dd5760048160038493019687550155846002830155855f52600460205260405f2093845493600160401b8510156107a85760018501808755851015611245578661220e957fcc27b715ab9e66303cb7f1c14fa067dacfdbc3a07b63ca0359f2fa31f828dd8d975f5260205f20015554905490604051948594608086526080860190611599565b926020850152604084015260608301520390a3565b60405162461bcd60e51b8152602060048201526013602482015272496e76616c696420737461727420707269636560681b6044820152606490fd5b60405162461bcd60e51b815260206004820152600e60248201526d105cdcd95d08191a5cd8589b195960921b6044820152606490fd5b916040519163a9059cbb60e01b5f5260018060a01b031660045260245260205f60448180865af19060015f51148216156122d4575b6040521561206a5750565b9060018115166120a257823b15153d151616906122c956fea26469706673582212201978cff9bae9ef2ac28a316962e271fd53f3c6e090a5cd0182ef2f00ad608caf64736f6c634300081c0033","opcodes":"PUSH1 0xC0 CALLVALUE PUSH2 0x1D4 JUMPI PUSH1 0x1F PUSH2 0x250F CODESIZE DUP2 SWAP1 SUB SWAP2 DUP3 ADD PUSH1 0x1F NOT AND DUP4 ADD SWAP2 PUSH1 0x1 PUSH1 0x1 PUSH1 0x40 SHL SUB DUP4 GT DUP5 DUP5 LT OR PUSH2 0x1D8 JUMPI DUP1 DUP5 SWAP3 PUSH1 0x40 SWAP5 DUP6 MSTORE DUP4 CODECOPY DUP2 ADD SUB SLT PUSH2 0x1D4 JUMPI DUP1 MLOAD PUSH1 0x1 PUSH1 0x1 PUSH1 0xA0 SHL SUB DUP2 AND SWAP2 DUP3 DUP3 SUB PUSH2 0x1D4 JUMPI PUSH1 0x20 ADD MLOAD SWAP2 CALLER ISZERO PUSH2 0x1C1 JUMPI PUSH0 DUP1 SLOAD CALLER PUSH1 0x1 PUSH1 0x1 PUSH1 0xA0 SHL SUB NOT DUP3 AND DUP2 OR DUP4 SSTORE PUSH1 0x40 MLOAD SWAP4 SWAP3 SWAP1 SWAP2 PUSH1 0x1 PUSH1 0x1 PUSH1 0xA0 SHL SUB AND SWAP1 PUSH32 0x8BE0079C531659141344CD1FD0A4F28419497F9722A3DAAFE3B4186F6B6457E0 SWAP1 DUP1 LOG3 PUSH1 0x1 PUSH32 0x9B779B17422D0DF92223018B32B4D1FA46E071723D6817E2486D003BECC55F00 SSTORE ISZERO PUSH2 0x18A JUMPI POP DUP2 ISZERO PUSH2 0x151 JUMPI PUSH1 0x80 MSTORE PUSH1 0xA0 MSTORE PUSH1 0x1 DUP1 SLOAD PUSH1 0x1 PUSH1 0x1 PUSH1 0xA0 SHL SUB NOT AND CALLER SWAP1 DUP2 OR SWAP1 SWAP2 SSTORE PUSH1 0x40 MLOAD SWAP1 PUSH32 0x5C78BA5C8FCD9DB602E671B13BEDB697B0AEC665653B646B0D715DCEA2937EA1 PUSH0 DUP1 LOG2 PUSH2 0x2322 SWAP1 DUP2 PUSH2 0x1ED DUP3 CODECOPY PUSH1 0x80 MLOAD DUP2 DUP2 DUP2 PUSH2 0x4AD ADD MSTORE DUP2 DUP2 PUSH2 0x183F ADD MSTORE DUP2 DUP2 PUSH2 0x1A90 ADD MSTORE PUSH2 0x1F32 ADD MSTORE PUSH1 0xA0 MLOAD DUP2 DUP2 DUP2 PUSH2 0x2C6 ADD MSTORE PUSH2 0x1E48 ADD MSTORE RETURN JUMPDEST PUSH1 0x40 MLOAD PUSH3 0x461BCD PUSH1 0xE5 SHL DUP2 MSTORE PUSH1 0x20 PUSH1 0x4 DUP3 ADD MSTORE PUSH1 0x11 PUSH1 0x24 DUP3 ADD MSTORE PUSH17 0x496E76616C6964206C6971756964697479 PUSH1 0x78 SHL PUSH1 0x44 DUP3 ADD MSTORE PUSH1 0x64 SWAP1 REVERT JUMPDEST PUSH3 0x461BCD PUSH1 0xE5 SHL DUP2 MSTORE PUSH1 0x20 PUSH1 0x4 DUP3 ADD MSTORE PUSH1 0x12 PUSH1 0x24 DUP3 ADD MSTORE PUSH18 0x125B9D985B1A590818DBDB1B185D195C985B PUSH1 0x72 SHL PUSH1 0x44 DUP3 ADD MSTORE PUSH1 0x64 SWAP1 REVERT JUMPDEST PUSH4 0x1E4FBDF7 PUSH1 0xE0 SHL PUSH0 MSTORE PUSH0 PUSH1 0x4 MSTORE PUSH1 0x24 PUSH0 REVERT JUMPDEST PUSH0 DUP1 REVERT JUMPDEST PUSH4 0x4E487B71 PUSH1 0xE0 SHL PUSH0 MSTORE PUSH1 0x41 PUSH1 0x4 MSTORE PUSH1 0x24 PUSH0 REVERT INVALID PUSH1 0x80 DUP1 PUSH1 0x40 MSTORE PUSH1 0x4 CALLDATASIZE LT ISZERO PUSH2 0x12 JUMPI PUSH0 DUP1 REVERT JUMPDEST PUSH0 CALLDATALOAD PUSH1 0xE0 SHR SWAP1 DUP2 PUSH4 0x1B6984E8 EQ PUSH2 0x10E1 JUMPI POP DUP1 PUSH4 0x249D39E9 EQ PUSH2 0x10C5 JUMPI DUP1 PUSH4 0x30DC389C EQ PUSH2 0x10A9 JUMPI DUP1 PUSH4 0x448758D5 EQ PUSH2 0xFFC JUMPI DUP1 PUSH4 0x4585E33B EQ PUSH2 0xF40 JUMPI DUP1 PUSH4 0x5AAD56AF EQ PUSH2 0xEA4 JUMPI DUP1 PUSH4 0x627D8E33 EQ PUSH2 0xDFD JUMPI DUP1 PUSH4 0x650B8725 EQ PUSH2 0xDDF JUMPI DUP1 PUSH4 0x677BD9FF EQ PUSH2 0xDB8 JUMPI DUP1 PUSH4 0x6E04FF0D EQ PUSH2 0xD5E JUMPI DUP1 PUSH4 0x715018A6 EQ PUSH2 0xD07 JUMPI DUP1 PUSH4 0x717BD21D EQ PUSH2 0xCEE JUMPI DUP1 PUSH4 0x79A7DFBF EQ PUSH2 0xC53 JUMPI DUP1 PUSH4 0x7BE7D786 EQ PUSH2 0xC21 JUMPI DUP1 PUSH4 0x80CAC3EE EQ PUSH2 0xBFF JUMPI DUP1 PUSH4 0x869DA9DB EQ PUSH2 0xB8C JUMPI DUP1 PUSH4 0x88C3FFB0 EQ PUSH2 0xA47 JUMPI DUP1 PUSH4 0x8DA5CB5B EQ PUSH2 0xA20 JUMPI DUP1 PUSH4 0x94AF8201 EQ PUSH2 0x9DD JUMPI DUP1 PUSH4 0x9731AA2E EQ PUSH2 0x9C2 JUMPI DUP1 PUSH4 0x9B40F28D EQ PUSH2 0x856 JUMPI DUP1 PUSH4 0xA0AEAD4D EQ PUSH2 0x839 JUMPI DUP1 PUSH4 0xADC02A64 EQ PUSH2 0x4DC JUMPI DUP1 PUSH4 0xB2016BD4 EQ PUSH2 0x498 JUMPI DUP1 PUSH4 0xC55D0F56 EQ PUSH2 0x45C JUMPI DUP1 PUSH4 0xD62AB79A EQ PUSH2 0x40E JUMPI DUP1 PUSH4 0xD7253DB9 EQ PUSH2 0x368 JUMPI DUP1 PUSH4 0xEAC8F5B8 EQ PUSH2 0x2E9 JUMPI DUP1 PUSH4 0xF06C0F56 EQ PUSH2 0x2AF JUMPI DUP1 PUSH4 0xF2FDE38B EQ PUSH2 0x22A JUMPI DUP1 PUSH4 0xF7798671 EQ PUSH2 0x19D JUMPI PUSH4 0xFEBC14B1 EQ PUSH2 0x17C JUMPI PUSH0 DUP1 REVERT JUMPDEST CALLVALUE PUSH2 0x199 JUMPI PUSH0 CALLDATASIZE PUSH1 0x3 NOT ADD SLT PUSH2 0x199 JUMPI PUSH1 0x20 PUSH1 0x5 SLOAD PUSH1 0x40 MLOAD SWAP1 DUP2 MSTORE RETURN JUMPDEST PUSH0 DUP1 REVERT JUMPDEST CALLVALUE PUSH2 0x199 JUMPI PUSH0 CALLDATASIZE PUSH1 0x3 NOT ADD SLT PUSH2 0x199 JUMPI PUSH0 JUMPDEST PUSH1 0x2 SLOAD DUP2 LT ISZERO PUSH2 0x228 JUMPI DUP1 PUSH1 0x2 PUSH2 0x1C7 PUSH1 0x1 SWAP4 PUSH2 0x120D JUMP JUMPDEST POP ADD SLOAD DUP1 ISZERO ISZERO DUP1 PUSH2 0x20E JUMPI JUMPDEST DUP1 PUSH2 0x1F5 JUMPI JUMPDEST PUSH2 0x1E5 JUMPI JUMPDEST POP ADD PUSH2 0x1AF JUMP JUMPDEST PUSH2 0x1EE SWAP1 PUSH2 0x1399 JUMP JUMPDEST POP DUP3 PUSH2 0x1DE JUMP JUMPDEST POP DUP1 PUSH0 MSTORE PUSH1 0x3 PUSH1 0x20 MSTORE PUSH1 0x3 PUSH1 0x40 PUSH0 KECCAK256 ADD SLOAD TIMESTAMP LT ISZERO PUSH2 0x1D9 JUMP JUMPDEST POP DUP1 PUSH0 MSTORE PUSH1 0x3 PUSH1 0x20 MSTORE PUSH1 0xFF PUSH1 0x6 PUSH1 0x40 PUSH0 KECCAK256 ADD SLOAD AND ISZERO PUSH2 0x1D3 JUMP JUMPDEST STOP JUMPDEST CALLVALUE PUSH2 0x199 JUMPI PUSH1 0x20 CALLDATASIZE PUSH1 0x3 NOT ADD SLT PUSH2 0x199 JUMPI PUSH2 0x243 PUSH2 0x1104 JUMP JUMPDEST PUSH2 0x24B PUSH2 0x1637 JUMP JUMPDEST PUSH1 0x1 PUSH1 0x1 PUSH1 0xA0 SHL SUB AND DUP1 ISZERO PUSH2 0x29C JUMPI PUSH0 DUP1 SLOAD PUSH1 0x1 PUSH1 0x1 PUSH1 0xA0 SHL SUB NOT DUP2 AND DUP4 OR DUP3 SSTORE PUSH1 0x1 PUSH1 0x1 PUSH1 0xA0 SHL SUB AND SWAP1 PUSH32 0x8BE0079C531659141344CD1FD0A4F28419497F9722A3DAAFE3B4186F6B6457E0 SWAP1 DUP1 LOG3 STOP JUMPDEST PUSH4 0x1E4FBDF7 PUSH1 0xE0 SHL PUSH0 MSTORE PUSH0 PUSH1 0x4 MSTORE PUSH1 0x24 PUSH0 REVERT JUMPDEST CALLVALUE PUSH2 0x199 JUMPI PUSH0 CALLDATASIZE PUSH1 0x3 NOT ADD SLT PUSH2 0x199 JUMPI PUSH1 0x20 PUSH1 0x40 MLOAD PUSH32 0x0 DUP2 MSTORE RETURN JUMPDEST CALLVALUE PUSH2 0x199 JUMPI PUSH1 0x20 CALLDATASIZE PUSH1 0x3 NOT ADD SLT PUSH2 0x199 JUMPI PUSH2 0x352 PUSH2 0x337 PUSH2 0x30B PUSH1 0x4 CALLDATALOAD PUSH2 0x120D JUMP JUMPDEST POP PUSH1 0x1 DUP1 PUSH1 0xA0 SHL SUB PUSH1 0x1 DUP3 ADD SLOAD AND SWAP1 PUSH1 0x2 DUP2 ADD SLOAD PUSH2 0x33E PUSH1 0xFF PUSH1 0x3 DUP5 ADD SLOAD AND SWAP3 PUSH1 0x40 MLOAD SWAP6 DUP7 DUP1 SWAP3 PUSH2 0x1599 JUMP JUMPDEST SUB DUP6 PUSH2 0x13EE JUMP JUMPDEST PUSH1 0x40 MLOAD SWAP5 DUP6 SWAP5 PUSH1 0x80 DUP7 MSTORE PUSH1 0x80 DUP7 ADD SWAP1 PUSH2 0x1195 JUMP JUMPDEST SWAP3 PUSH1 0x20 DUP6 ADD MSTORE PUSH1 0x40 DUP5 ADD MSTORE ISZERO ISZERO PUSH1 0x60 DUP4 ADD MSTORE SUB SWAP1 RETURN JUMPDEST CALLVALUE PUSH2 0x199 JUMPI PUSH1 0x20 CALLDATASIZE PUSH1 0x3 NOT ADD SLT PUSH2 0x199 JUMPI PUSH1 0x4 CALLDATALOAD PUSH0 MSTORE PUSH1 0x4 PUSH1 0x20 MSTORE PUSH1 0x40 PUSH0 KECCAK256 PUSH1 0x40 MLOAD DUP1 PUSH1 0x20 DUP4 SLOAD SWAP2 DUP3 DUP2 MSTORE ADD SWAP1 DUP2 SWAP4 PUSH0 MSTORE PUSH1 0x20 PUSH0 KECCAK256 SWAP1 PUSH0 JUMPDEST DUP2 DUP2 LT PUSH2 0x3F8 JUMPI POP POP POP DUP2 PUSH2 0x3B6 SWAP2 SUB DUP3 PUSH2 0x13EE JUMP JUMPDEST PUSH1 0x40 MLOAD SWAP2 DUP3 SWAP2 PUSH1 0x20 DUP4 ADD SWAP1 PUSH1 0x20 DUP5 MSTORE MLOAD DUP1 SWAP2 MSTORE PUSH1 0x40 DUP4 ADD SWAP2 SWAP1 PUSH0 JUMPDEST DUP2 DUP2 LT PUSH2 0x3DF JUMPI POP POP POP SUB SWAP1 RETURN JUMPDEST DUP3 MLOAD DUP5 MSTORE DUP6 SWAP5 POP PUSH1 0x20 SWAP4 DUP5 ADD SWAP4 SWAP1 SWAP3 ADD SWAP2 PUSH1 0x1 ADD PUSH2 0x3D1 JUMP JUMPDEST DUP3 SLOAD DUP5 MSTORE PUSH1 0x20 SWAP1 SWAP4 ADD SWAP3 PUSH1 0x1 SWAP3 DUP4 ADD SWAP3 ADD PUSH2 0x3A0 JUMP JUMPDEST CALLVALUE PUSH2 0x199 JUMPI PUSH1 0x20 PUSH2 0x430 PUSH2 0x421 CALLDATASIZE PUSH2 0x11B9 JUMP JUMPDEST SWAP2 PUSH2 0x42A PUSH2 0x165D JUMP JUMPDEST CALLER PUSH2 0x1732 JUMP JUMPDEST PUSH1 0x1 PUSH32 0x9B779B17422D0DF92223018B32B4D1FA46E071723D6817E2486D003BECC55F00 SSTORE PUSH1 0x40 MLOAD SWAP1 DUP2 MSTORE RETURN JUMPDEST CALLVALUE PUSH2 0x199 JUMPI PUSH1 0x20 CALLDATASIZE PUSH1 0x3 NOT ADD SLT PUSH2 0x199 JUMPI PUSH1 0x20 PUSH2 0x490 PUSH2 0x47D PUSH1 0x4 CALLDATALOAD PUSH2 0x120D JUMP JUMPDEST POP PUSH1 0x1 ADD SLOAD PUSH1 0x1 PUSH1 0x1 PUSH1 0xA0 SHL SUB AND PUSH2 0x1C23 JUMP JUMPDEST PUSH1 0x40 MLOAD SWAP1 DUP2 MSTORE RETURN JUMPDEST CALLVALUE PUSH2 0x199 JUMPI PUSH0 CALLDATASIZE PUSH1 0x3 NOT ADD SLT PUSH2 0x199 JUMPI PUSH1 0x40 MLOAD PUSH32 0x0 PUSH1 0x1 PUSH1 0x1 PUSH1 0xA0 SHL SUB AND DUP2 MSTORE PUSH1 0x20 SWAP1 RETURN JUMPDEST CALLVALUE PUSH2 0x199 JUMPI PUSH1 0x40 CALLDATASIZE PUSH1 0x3 NOT ADD SLT PUSH2 0x199 JUMPI PUSH1 0x4 CALLDATALOAD PUSH8 0xFFFFFFFFFFFFFFFF DUP2 GT PUSH2 0x199 JUMPI PUSH2 0x50D SWAP1 CALLDATASIZE SWAP1 PUSH1 0x4 ADD PUSH2 0x1130 JUMP JUMPDEST SWAP1 PUSH2 0x516 PUSH2 0x111A JUMP JUMPDEST PUSH2 0x51E PUSH2 0x1637 JUMP JUMPDEST DUP3 ISZERO PUSH2 0x803 JUMPI PUSH1 0x1 PUSH1 0x1 PUSH1 0xA0 SHL SUB AND SWAP1 DUP2 ISZERO PUSH2 0x7CF JUMPI PUSH1 0x40 MLOAD SWAP1 PUSH1 0x80 DUP3 ADD DUP3 DUP2 LT PUSH8 0xFFFFFFFFFFFFFFFF DUP3 GT OR PUSH2 0x7A8 JUMPI PUSH1 0x40 MSTORE PUSH8 0xFFFFFFFFFFFFFFFF DUP5 GT PUSH2 0x7A8 JUMPI PUSH1 0x40 MLOAD PUSH1 0x1F DUP6 ADD PUSH1 0x1F NOT AND SWAP3 SWAP1 PUSH2 0x57B PUSH1 0x20 DUP6 ADD DUP3 PUSH2 0x13EE JUMP JUMPDEST DUP6 DUP2 MSTORE CALLDATASIZE DUP7 DUP5 ADD GT PUSH2 0x199 JUMPI DUP6 DUP4 PUSH1 0x20 DUP4 ADD CALLDATACOPY PUSH0 PUSH1 0x20 DUP8 DUP4 ADD ADD MSTORE DUP2 MSTORE PUSH1 0x20 DUP2 ADD SWAP1 DUP5 DUP3 MSTORE PUSH1 0x40 DUP2 ADD PUSH0 DUP2 MSTORE PUSH1 0x60 DUP3 ADD SWAP3 PUSH1 0x1 DUP5 MSTORE PUSH1 0x2 SLOAD PUSH1 0x1 PUSH1 0x40 SHL DUP2 LT ISZERO PUSH2 0x7A8 JUMPI DUP1 PUSH1 0x1 PUSH2 0x5CF SWAP3 ADD PUSH1 0x2 SSTORE PUSH2 0x120D JUMP JUMPDEST SWAP4 SWAP1 SWAP4 PUSH2 0x7BC JUMPI MLOAD DUP1 MLOAD SWAP1 PUSH8 0xFFFFFFFFFFFFFFFF DUP3 GT PUSH2 0x7A8 JUMPI PUSH2 0x5F3 DUP6 SLOAD PUSH2 0x1561 JUMP JUMPDEST PUSH1 0x1F DUP2 GT PUSH2 0x763 JUMPI JUMPDEST POP PUSH1 0x20 SWAP1 PUSH1 0x1F DUP4 GT PUSH1 0x1 EQ PUSH2 0x6FC JUMPI PUSH1 0x3 SWAP6 SWAP5 SWAP4 SWAP3 SWAP2 PUSH0 SWAP2 DUP4 PUSH2 0x6F1 JUMPI JUMPDEST POP POP DUP2 PUSH1 0x1 SHL SWAP2 PUSH0 NOT SWAP1 DUP8 SHL SHR NOT AND OR DUP4 SSTORE JUMPDEST PUSH1 0x1 DUP4 ADD SWAP1 PUSH1 0x1 DUP1 PUSH1 0xA0 SHL SUB SWAP1 MLOAD AND PUSH12 0xFFFFFFFFFFFFFFFFFFFFFFFF PUSH1 0xA0 SHL DUP3 SLOAD AND OR SWAP1 SSTORE MLOAD PUSH1 0x2 DUP3 ADD SSTORE ADD SWAP1 MLOAD ISZERO ISZERO PUSH1 0xFF DUP1 NOT DUP4 SLOAD AND SWAP2 AND OR SWAP1 SSTORE PUSH1 0x2 SLOAD SWAP3 PUSH0 NOT DUP5 ADD SWAP4 DUP5 GT PUSH2 0x6DD JUMPI DUP1 DUP5 PUSH32 0x6C60221BFA5C9C4EE8109BA8562FC401AA92A46606A02D979F9DE6A8F97C2D0A DUP8 PUSH1 0x40 PUSH2 0x6CE SWAP7 PUSH2 0x6D4 SWAP9 PUSH0 DUP4 PUSH1 0x20 SWAP14 DUP2 MLOAD SWAP7 DUP16 SWAP6 DUP9 SWAP7 DUP8 MSTORE PUSH1 0x20 DUP3 SWAP1 DUP9 ADD MSTORE DUP4 DUP8 ADD CALLDATACOPY DUP5 ADD ADD MSTORE DUP2 ADD SUB ADD SWAP1 LOG3 PUSH2 0x1C23 JUMP JUMPDEST DUP3 PUSH2 0x2113 JUMP JUMPDEST POP PUSH1 0x40 MLOAD SWAP1 DUP2 MSTORE RETURN JUMPDEST PUSH4 0x4E487B71 PUSH1 0xE0 SHL PUSH0 MSTORE PUSH1 0x11 PUSH1 0x4 MSTORE PUSH1 0x24 PUSH0 REVERT JUMPDEST ADD MLOAD SWAP1 POP DUP12 DUP1 PUSH2 0x61A JUMP JUMPDEST SWAP1 PUSH1 0x1F NOT DUP4 AND SWAP2 DUP7 PUSH0 MSTORE DUP2 PUSH0 KECCAK256 SWAP3 PUSH0 JUMPDEST DUP2 DUP2 LT PUSH2 0x74B JUMPI POP SWAP2 PUSH1 0x1 SWAP4 SWAP2 DUP6 PUSH1 0x3 SWAP10 SWAP9 SWAP8 SWAP7 SWAP5 LT PUSH2 0x734 JUMPI JUMPDEST POP POP POP DUP2 SHL ADD DUP4 SSTORE PUSH2 0x62D JUMP JUMPDEST ADD MLOAD PUSH0 NOT DUP4 DUP10 SHL PUSH1 0xF8 AND SHR NOT AND SWAP1 SSTORE DUP12 DUP1 DUP1 PUSH2 0x727 JUMP JUMPDEST SWAP3 SWAP4 PUSH1 0x20 PUSH1 0x1 DUP2 SWAP3 DUP8 DUP7 ADD MLOAD DUP2 SSTORE ADD SWAP6 ADD SWAP4 ADD PUSH2 0x70C JUMP JUMPDEST DUP6 PUSH0 MSTORE PUSH1 0x20 PUSH0 KECCAK256 PUSH1 0x1F DUP5 ADD PUSH1 0x5 SHR DUP2 ADD SWAP2 PUSH1 0x20 DUP6 LT PUSH2 0x79E JUMPI JUMPDEST PUSH1 0x1F ADD PUSH1 0x5 SHR ADD SWAP1 JUMPDEST DUP2 DUP2 LT PUSH2 0x793 JUMPI POP PUSH2 0x5FC JUMP JUMPDEST PUSH0 DUP2 SSTORE PUSH1 0x1 ADD PUSH2 0x786 JUMP JUMPDEST SWAP1 SWAP2 POP DUP2 SWAP1 PUSH2 0x77D JUMP JUMPDEST PUSH4 0x4E487B71 PUSH1 0xE0 SHL PUSH0 MSTORE PUSH1 0x41 PUSH1 0x4 MSTORE PUSH1 0x24 PUSH0 REVERT JUMPDEST PUSH4 0x4E487B71 PUSH1 0xE0 SHL PUSH0 MSTORE PUSH0 PUSH1 0x4 MSTORE PUSH1 0x24 PUSH0 REVERT JUMPDEST PUSH1 0x40 MLOAD PUSH3 0x461BCD PUSH1 0xE5 SHL DUP2 MSTORE PUSH1 0x20 PUSH1 0x4 DUP3 ADD MSTORE PUSH1 0xC PUSH1 0x24 DUP3 ADD MSTORE PUSH12 0x125B9D985B1A590819995959 PUSH1 0xA2 SHL PUSH1 0x44 DUP3 ADD MSTORE PUSH1 0x64 SWAP1 REVERT JUMPDEST PUSH1 0x40 MLOAD PUSH3 0x461BCD PUSH1 0xE5 SHL DUP2 MSTORE PUSH1 0x20 PUSH1 0x4 DUP3 ADD MSTORE PUSH1 0xE PUSH1 0x24 DUP3 ADD MSTORE PUSH14 0x125B9D985B1A59081CDE5B589BDB PUSH1 0x92 SHL PUSH1 0x44 DUP3 ADD MSTORE PUSH1 0x64 SWAP1 REVERT JUMPDEST CALLVALUE PUSH2 0x199 JUMPI PUSH0 CALLDATASIZE PUSH1 0x3 NOT ADD SLT PUSH2 0x199 JUMPI PUSH1 0x20 PUSH1 0x2 SLOAD PUSH1 0x40 MLOAD SWAP1 DUP2 MSTORE RETURN JUMPDEST CALLVALUE PUSH2 0x199 JUMPI PUSH1 0x40 CALLDATASIZE PUSH1 0x3 NOT ADD SLT PUSH2 0x199 JUMPI PUSH1 0x4 CALLDATALOAD PUSH8 0xFFFFFFFFFFFFFFFF DUP2 GT PUSH2 0x199 JUMPI PUSH2 0x887 SWAP1 CALLDATASIZE SWAP1 PUSH1 0x4 ADD PUSH2 0x11DC JUMP JUMPDEST SWAP1 PUSH1 0x24 CALLDATALOAD PUSH8 0xFFFFFFFFFFFFFFFF DUP2 GT PUSH2 0x199 JUMPI PUSH2 0x8A8 SWAP1 CALLDATASIZE SWAP1 PUSH1 0x4 ADD PUSH2 0x11DC JUMP JUMPDEST SWAP1 PUSH1 0x1 DUP1 PUSH1 0xA0 SHL SUB PUSH0 SLOAD AND CALLER EQ DUP1 ISZERO PUSH2 0x9AE JUMPI JUMPDEST PUSH2 0x8C5 SWAP1 PUSH2 0x1299 JUMP JUMPDEST DUP2 DUP5 SUB PUSH2 0x977 JUMPI PUSH0 SWAP4 PUSH0 JUMPDEST DUP2 DUP2 LT PUSH2 0x8E0 JUMPI PUSH2 0x228 DUP7 PUSH2 0x1259 JUMP JUMPDEST PUSH1 0x2 PUSH2 0x902 PUSH2 0x8F0 DUP4 DUP6 DUP10 PUSH2 0x1627 JUMP JUMPDEST CALLDATALOAD PUSH2 0x8FD DUP4 SLOAD DUP3 LT PUSH2 0x1525 JUMP JUMPDEST PUSH2 0x120D JUMP JUMPDEST POP ADD SLOAD DUP1 ISZERO ISZERO DUP1 PUSH2 0x95D JUMPI JUMPDEST DUP1 PUSH2 0x944 JUMPI JUMPDEST PUSH2 0x922 JUMPI JUMPDEST POP PUSH1 0x1 ADD PUSH2 0x8D0 JUMP JUMPDEST DUP2 SWAP7 POP PUSH2 0x933 PUSH2 0x93A SWAP3 DUP7 DUP7 PUSH2 0x1627 JUMP JUMPDEST CALLDATALOAD SWAP1 PUSH2 0x1D35 JUMP JUMPDEST POP PUSH1 0x1 SWAP5 DUP6 PUSH2 0x919 JUMP JUMPDEST POP DUP1 PUSH0 MSTORE PUSH1 0x3 PUSH1 0x20 MSTORE PUSH1 0x3 PUSH1 0x40 PUSH0 KECCAK256 ADD SLOAD TIMESTAMP LT ISZERO PUSH2 0x914 JUMP JUMPDEST POP DUP1 PUSH0 MSTORE PUSH1 0x3 PUSH1 0x20 MSTORE PUSH1 0xFF PUSH1 0x6 PUSH1 0x40 PUSH0 KECCAK256 ADD SLOAD AND ISZERO PUSH2 0x90E JUMP JUMPDEST PUSH1 0x40 MLOAD PUSH3 0x461BCD PUSH1 0xE5 SHL DUP2 MSTORE PUSH1 0x20 PUSH1 0x4 DUP3 ADD MSTORE PUSH1 0xF PUSH1 0x24 DUP3 ADD MSTORE PUSH15 0x98CADCCEE8D040DAD2E6DAC2E8C6D PUSH1 0x8B SHL PUSH1 0x44 DUP3 ADD MSTORE PUSH1 0x64 SWAP1 REVERT JUMPDEST POP PUSH1 0x1 SLOAD PUSH1 0x1 PUSH1 0x1 PUSH1 0xA0 SHL SUB AND CALLER EQ PUSH2 0x8BC JUMP JUMPDEST CALLVALUE PUSH2 0x199 JUMPI PUSH0 CALLDATASIZE PUSH1 0x3 NOT ADD SLT PUSH2 0x199 JUMPI PUSH1 0x20 PUSH1 0x40 MLOAD PUSH1 0x1E DUP2 MSTORE RETURN JUMPDEST CALLVALUE PUSH2 0x199 JUMPI PUSH1 0x20 PUSH2 0x2710 PUSH2 0xA17 DUP2 PUSH2 0xA11 PUSH2 0xA0B PUSH2 0x9FA CALLDATASIZE PUSH2 0x11B9 JUMP JUMPDEST SWAP3 SWAP2 PUSH0 MSTORE PUSH1 0x3 DUP9 MSTORE PUSH1 0x40 PUSH0 KECCAK256 PUSH2 0x1E43 JUMP JUMPDEST SWAP1 PUSH2 0x14C1 JUMP JUMPDEST DIV PUSH2 0x14A9 JUMP JUMPDEST DIV PUSH1 0x40 MLOAD SWAP1 DUP2 MSTORE RETURN JUMPDEST CALLVALUE PUSH2 0x199 JUMPI PUSH0 CALLDATASIZE PUSH1 0x3 NOT ADD SLT PUSH2 0x199 JUMPI PUSH0 SLOAD PUSH1 0x40 MLOAD PUSH1 0x1 PUSH1 0x1 PUSH1 0xA0 SHL SUB SWAP1 SWAP2 AND DUP2 MSTORE PUSH1 0x20 SWAP1 RETURN JUMPDEST CALLVALUE PUSH2 0x199 JUMPI PUSH1 0x20 CALLDATASIZE PUSH1 0x3 NOT ADD SLT PUSH2 0x199 JUMPI PUSH1 0x4 CALLDATALOAD PUSH0 MSTORE PUSH1 0x3 PUSH1 0x20 MSTORE PUSH1 0x40 PUSH0 KECCAK256 DUP1 SLOAD SWAP1 PUSH2 0xA72 DUP3 PUSH2 0x120D JUMP JUMPDEST POP PUSH1 0x6 DUP3 ADD SLOAD SWAP1 SWAP2 PUSH1 0xFF DUP3 AND ISZERO PUSH2 0xB70 JUMPI PUSH1 0x5 DUP2 ADD SLOAD JUMPDEST PUSH1 0x1 DUP3 ADD SLOAD SWAP3 PUSH1 0x2 DUP4 ADD SLOAD SWAP3 PUSH1 0x3 DUP2 ADD SLOAD SWAP2 PUSH1 0x4 DUP3 ADD SLOAD SWAP1 PUSH1 0x5 DUP4 ADD SLOAD SWAP1 PUSH1 0x7 DUP5 ADD SLOAD SWAP1 PUSH1 0x8 DUP6 ADD SLOAD SWAP3 PUSH1 0x9 DUP7 ADD SLOAD SWAP5 PUSH1 0xA DUP8 ADD SLOAD SWAP7 PUSH1 0xB ADD SLOAD SWAP8 DUP13 PUSH1 0x1 PUSH1 0xA0 SHL PUSH1 0x1 SWAP1 SUB SWAP1 PUSH1 0x1 ADD SLOAD AND SWAP11 PUSH1 0x40 MLOAD DUP1 SWAP15 PUSH2 0xAE5 DUP3 DUP1 SWAP3 PUSH2 0x1599 JUMP JUMPDEST SUB PUSH2 0xAEF SWAP2 PUSH2 0x13EE JUMP JUMPDEST PUSH1 0x40 MLOAD SWAP15 DUP16 SWAP15 DUP16 SWAP2 DUP3 MSTORE PUSH1 0x20 DUP3 ADD PUSH2 0x200 SWAP1 MSTORE PUSH2 0x200 DUP3 ADD PUSH2 0xB10 SWAP2 PUSH2 0x1195 JUMP JUMPDEST SWAP14 PUSH1 0x40 DUP3 ADD MSTORE PUSH1 0x60 ADD MSTORE PUSH1 0x80 DUP14 ADD MSTORE PUSH1 0xA0 DUP13 ADD MSTORE PUSH1 0xC0 DUP12 ADD MSTORE PUSH1 0xFF DUP2 AND ISZERO ISZERO PUSH1 0xE0 DUP12 ADD MSTORE PUSH1 0x8 SHR PUSH1 0xFF AND ISZERO ISZERO PUSH2 0x100 DUP11 ADD MSTORE PUSH2 0x120 DUP10 ADD MSTORE PUSH2 0x140 DUP9 ADD MSTORE PUSH2 0x160 DUP8 ADD MSTORE PUSH2 0x180 DUP7 ADD MSTORE PUSH2 0x1A0 DUP6 ADD MSTORE PUSH2 0x1C0 DUP5 ADD MSTORE PUSH2 0x1E0 DUP4 ADD MSTORE SUB SWAP1 RETURN JUMPDEST PUSH1 0x1 DUP4 ADD SLOAD PUSH2 0xB87 SWAP1 PUSH1 0x1 PUSH1 0x1 PUSH1 0xA0 SHL SUB AND PUSH2 0x1C23 JUMP JUMPDEST PUSH2 0xA89 JUMP JUMPDEST CALLVALUE PUSH2 0x199 JUMPI PUSH1 0x40 CALLDATASIZE PUSH1 0x3 NOT ADD SLT PUSH2 0x199 JUMPI PUSH2 0xBA5 PUSH2 0x111A JUMP JUMPDEST PUSH1 0x4 CALLDATALOAD PUSH0 MSTORE PUSH1 0x3 PUSH1 0x20 MSTORE PUSH1 0xC PUSH1 0x40 PUSH0 KECCAK256 ADD SWAP1 PUSH1 0x1 DUP1 PUSH1 0xA0 SHL SUB AND PUSH0 MSTORE PUSH1 0x20 MSTORE PUSH1 0x40 PUSH0 KECCAK256 DUP1 SLOAD PUSH2 0xBFB PUSH1 0xFF PUSH1 0x2 PUSH1 0x1 DUP6 ADD SLOAD SWAP5 ADD SLOAD AND PUSH1 0x40 MLOAD SWAP4 DUP5 SWAP4 DUP5 SWAP2 SWAP3 PUSH1 0x40 SWAP2 SWAP5 SWAP4 PUSH1 0x60 DUP5 ADD SWAP6 DUP5 MSTORE PUSH1 0x20 DUP5 ADD MSTORE ISZERO ISZERO SWAP2 ADD MSTORE JUMP JUMPDEST SUB SWAP1 RETURN JUMPDEST CALLVALUE PUSH2 0x199 JUMPI PUSH1 0x20 PUSH2 0x430 PUSH2 0xC12 CALLDATASIZE PUSH2 0x11B9 JUMP JUMPDEST SWAP2 PUSH2 0xC1B PUSH2 0x165D JUMP JUMPDEST CALLER PUSH2 0x1ED9 JUMP JUMPDEST CALLVALUE PUSH2 0x199 JUMPI PUSH1 0x20 CALLDATASIZE PUSH1 0x3 NOT ADD SLT PUSH2 0x199 JUMPI PUSH1 0x20 PUSH2 0x490 PUSH1 0x2 PUSH2 0xC4B PUSH1 0x4 CALLDATALOAD PUSH2 0x8FD DUP4 SLOAD DUP3 LT PUSH2 0x1525 JUMP JUMPDEST POP ADD SLOAD PUSH2 0x1399 JUMP JUMPDEST CALLVALUE PUSH2 0x199 JUMPI PUSH2 0xC61 CALLDATASIZE PUSH2 0x115E JUMP JUMPDEST SWAP1 PUSH2 0xC6D SWAP4 SWAP3 SWAP4 PUSH2 0x165D JUMP JUMPDEST PUSH0 SLOAD PUSH1 0x1 PUSH1 0x1 PUSH1 0xA0 SHL SUB AND CALLER EQ DUP1 ISZERO PUSH2 0xCDA JUMPI JUMPDEST PUSH2 0xC8A SWAP1 PUSH2 0x1299 JUMP JUMPDEST PUSH1 0x1 PUSH1 0x1 PUSH1 0xA0 SHL SUB DUP4 AND ISZERO PUSH2 0xCA5 JUMPI PUSH1 0x20 SWAP4 PUSH2 0x430 SWAP4 PUSH2 0x1ED9 JUMP JUMPDEST PUSH1 0x40 MLOAD PUSH3 0x461BCD PUSH1 0xE5 SHL DUP2 MSTORE PUSH1 0x20 PUSH1 0x4 DUP3 ADD MSTORE PUSH1 0xD PUSH1 0x24 DUP3 ADD MSTORE PUSH13 0x24B73B30B634B210313ABCB2B9 PUSH1 0x99 SHL PUSH1 0x44 DUP3 ADD MSTORE PUSH1 0x64 SWAP1 REVERT JUMPDEST POP PUSH1 0x1 SLOAD PUSH1 0x1 PUSH1 0x1 PUSH1 0xA0 SHL SUB AND CALLER EQ PUSH2 0xC81 JUMP JUMPDEST CALLVALUE PUSH2 0x199 JUMPI PUSH1 0x20 PUSH2 0x490 PUSH2 0xD01 CALLDATASIZE PUSH2 0x11B9 JUMP JUMPDEST SWAP2 PUSH2 0x14F2 JUMP JUMPDEST CALLVALUE PUSH2 0x199 JUMPI PUSH0 CALLDATASIZE PUSH1 0x3 NOT ADD SLT PUSH2 0x199 JUMPI PUSH2 0xD1F PUSH2 0x1637 JUMP JUMPDEST PUSH0 DUP1 SLOAD PUSH1 0x1 PUSH1 0x1 PUSH1 0xA0 SHL SUB NOT DUP2 AND DUP3 SSTORE PUSH1 0x1 PUSH1 0x1 PUSH1 0xA0 SHL SUB AND PUSH32 0x8BE0079C531659141344CD1FD0A4F28419497F9722A3DAAFE3B4186F6B6457E0 DUP3 DUP1 LOG3 STOP JUMPDEST CALLVALUE PUSH2 0x199 JUMPI PUSH1 0x20 CALLDATASIZE PUSH1 0x3 NOT ADD SLT PUSH2 0x199 JUMPI PUSH1 0x4 CALLDATALOAD PUSH8 0xFFFFFFFFFFFFFFFF DUP2 GT PUSH2 0x199 JUMPI PUSH2 0xD8F SWAP1 CALLDATASIZE SWAP1 PUSH1 0x4 ADD PUSH2 0x1130 JUMP JUMPDEST POP POP PUSH2 0xD99 PUSH2 0x1410 JUMP JUMPDEST SWAP1 PUSH2 0xBFB PUSH1 0x40 MLOAD SWAP3 DUP4 SWAP3 ISZERO ISZERO DUP4 MSTORE PUSH1 0x40 PUSH1 0x20 DUP5 ADD MSTORE PUSH1 0x40 DUP4 ADD SWAP1 PUSH2 0x1195 JUMP JUMPDEST CALLVALUE PUSH2 0x199 JUMPI PUSH1 0x20 CALLDATASIZE PUSH1 0x3 NOT ADD SLT PUSH2 0x199 JUMPI PUSH2 0xDD1 PUSH2 0x165D JUMP JUMPDEST PUSH1 0x20 PUSH2 0x430 PUSH1 0x4 CALLDATALOAD CALLER PUSH2 0x19F7 JUMP JUMPDEST CALLVALUE PUSH2 0x199 JUMPI PUSH1 0x20 CALLDATASIZE PUSH1 0x3 NOT ADD SLT PUSH2 0x199 JUMPI PUSH1 0x20 PUSH2 0x490 PUSH1 0x4 CALLDATALOAD PUSH2 0x1399 JUMP JUMPDEST CALLVALUE PUSH2 0x199 JUMPI PUSH1 0x40 CALLDATASIZE PUSH1 0x3 NOT ADD SLT PUSH2 0x199 JUMPI PUSH2 0xE16 PUSH2 0x1104 JUMP JUMPDEST PUSH2 0xE1E PUSH2 0x165D JUMP JUMPDEST PUSH0 SLOAD PUSH1 0x1 PUSH1 0x1 PUSH1 0xA0 SHL SUB AND CALLER EQ DUP1 ISZERO PUSH2 0xE90 JUMPI JUMPDEST PUSH2 0xE3B SWAP1 PUSH2 0x1299 JUMP JUMPDEST PUSH1 0x1 PUSH1 0x1 PUSH1 0xA0 SHL SUB DUP2 AND ISZERO PUSH2 0xE59 JUMPI PUSH2 0x430 PUSH1 0x20 SWAP2 PUSH1 0x24 CALLDATALOAD SWAP1 PUSH2 0x19F7 JUMP JUMPDEST PUSH1 0x40 MLOAD PUSH3 0x461BCD PUSH1 0xE5 SHL DUP2 MSTORE PUSH1 0x20 PUSH1 0x4 DUP3 ADD MSTORE PUSH1 0xF PUSH1 0x24 DUP3 ADD MSTORE PUSH15 0x24B73B30B634B21031B630B4B6B2B9 PUSH1 0x89 SHL PUSH1 0x44 DUP3 ADD MSTORE PUSH1 0x64 SWAP1 REVERT JUMPDEST POP PUSH1 0x1 SLOAD PUSH1 0x1 PUSH1 0x1 PUSH1 0xA0 SHL SUB AND CALLER EQ PUSH2 0xE32 JUMP JUMPDEST CALLVALUE PUSH2 0x199 JUMPI PUSH2 0xEB2 CALLDATASIZE PUSH2 0x115E JUMP JUMPDEST SWAP1 PUSH2 0xEBE SWAP4 SWAP3 SWAP4 PUSH2 0x165D JUMP JUMPDEST PUSH0 SLOAD PUSH1 0x1 PUSH1 0x1 PUSH1 0xA0 SHL SUB AND CALLER EQ DUP1 ISZERO PUSH2 0xF2C JUMPI JUMPDEST PUSH2 0xEDB SWAP1 PUSH2 0x1299 JUMP JUMPDEST PUSH1 0x1 PUSH1 0x1 PUSH1 0xA0 SHL SUB DUP4 AND ISZERO PUSH2 0xEF6 JUMPI PUSH1 0x20 SWAP4 PUSH2 0x430 SWAP4 PUSH2 0x1732 JUMP JUMPDEST PUSH1 0x40 MLOAD PUSH3 0x461BCD PUSH1 0xE5 SHL DUP2 MSTORE PUSH1 0x20 PUSH1 0x4 DUP3 ADD MSTORE PUSH1 0xE PUSH1 0x24 DUP3 ADD MSTORE PUSH14 0x24B73B30B634B21039B2B63632B9 PUSH1 0x91 SHL PUSH1 0x44 DUP3 ADD MSTORE PUSH1 0x64 SWAP1 REVERT JUMPDEST POP PUSH1 0x1 SLOAD PUSH1 0x1 PUSH1 0x1 PUSH1 0xA0 SHL SUB AND CALLER EQ PUSH2 0xED2 JUMP JUMPDEST CALLVALUE PUSH2 0x199 JUMPI PUSH1 0x20 CALLDATASIZE PUSH1 0x3 NOT ADD SLT PUSH2 0x199 JUMPI PUSH1 0x4 CALLDATALOAD PUSH8 0xFFFFFFFFFFFFFFFF DUP2 GT PUSH2 0x199 JUMPI PUSH2 0xF71 SWAP1 CALLDATASIZE SWAP1 PUSH1 0x4 ADD PUSH2 0x1130 JUMP JUMPDEST POP POP PUSH0 PUSH0 JUMPDEST PUSH1 0x2 SLOAD DUP2 LT ISZERO PUSH2 0xFF3 JUMPI PUSH1 0x2 PUSH2 0xF8B DUP3 PUSH2 0x120D JUMP JUMPDEST POP ADD SLOAD DUP1 ISZERO ISZERO DUP1 PUSH2 0xFD9 JUMPI JUMPDEST DUP1 PUSH2 0xFC0 JUMPI JUMPDEST PUSH2 0xFAB JUMPI JUMPDEST POP PUSH1 0x1 ADD PUSH2 0xF76 JUMP JUMPDEST PUSH2 0xFB6 SWAP2 SWAP3 POP PUSH2 0x1399 JUMP JUMPDEST POP PUSH1 0x1 SWAP1 DUP2 PUSH2 0xFA2 JUMP JUMPDEST POP DUP1 PUSH0 MSTORE PUSH1 0x3 PUSH1 0x20 MSTORE PUSH1 0x3 PUSH1 0x40 PUSH0 KECCAK256 ADD SLOAD TIMESTAMP LT ISZERO PUSH2 0xF9D JUMP JUMPDEST POP DUP1 PUSH0 MSTORE PUSH1 0x3 PUSH1 0x20 MSTORE PUSH1 0xFF PUSH1 0x6 PUSH1 0x40 PUSH0 KECCAK256 ADD SLOAD AND ISZERO PUSH2 0xF97 JUMP JUMPDEST PUSH2 0x228 DUP3 PUSH2 0x1259 JUMP JUMPDEST CALLVALUE PUSH2 0x199 JUMPI PUSH1 0x20 CALLDATASIZE PUSH1 0x3 NOT ADD SLT PUSH2 0x199 JUMPI PUSH2 0x1015 PUSH2 0x1104 JUMP JUMPDEST PUSH2 0x101D PUSH2 0x1637 JUMP JUMPDEST PUSH1 0x1 PUSH1 0x1 PUSH1 0xA0 SHL SUB AND DUP1 ISZERO PUSH2 0x1064 JUMPI PUSH1 0x1 DUP1 SLOAD PUSH1 0x1 PUSH1 0x1 PUSH1 0xA0 SHL SUB NOT AND DUP3 OR SWAP1 SSTORE PUSH32 0x5C78BA5C8FCD9DB602E671B13BEDB697B0AEC665653B646B0D715DCEA2937EA1 PUSH0 DUP1 LOG2 STOP JUMPDEST PUSH1 0x40 MLOAD PUSH3 0x461BCD PUSH1 0xE5 SHL DUP2 MSTORE PUSH1 0x20 PUSH1 0x4 DUP3 ADD MSTORE PUSH1 0x1B PUSH1 0x24 DUP3 ADD MSTORE PUSH32 0x496E76616C696420736574746C656D656E74206F70657261746F720000000000 PUSH1 0x44 DUP3 ADD MSTORE PUSH1 0x64 SWAP1 REVERT JUMPDEST CALLVALUE PUSH2 0x199 JUMPI PUSH0 CALLDATASIZE PUSH1 0x3 NOT ADD SLT PUSH2 0x199 JUMPI PUSH1 0x20 PUSH1 0x40 MLOAD PUSH2 0x12C DUP2 MSTORE RETURN JUMPDEST CALLVALUE PUSH2 0x199 JUMPI PUSH0 CALLDATASIZE PUSH1 0x3 NOT ADD SLT PUSH2 0x199 JUMPI PUSH1 0x20 PUSH1 0x40 MLOAD PUSH2 0x2710 DUP2 MSTORE RETURN JUMPDEST CALLVALUE PUSH2 0x199 JUMPI PUSH0 CALLDATASIZE PUSH1 0x3 NOT ADD SLT PUSH2 0x199 JUMPI PUSH1 0x1 SLOAD PUSH1 0x1 PUSH1 0x1 PUSH1 0xA0 SHL SUB AND DUP2 MSTORE PUSH1 0x20 SWAP1 RETURN JUMPDEST PUSH1 0x4 CALLDATALOAD SWAP1 PUSH1 0x1 PUSH1 0x1 PUSH1 0xA0 SHL SUB DUP3 AND DUP3 SUB PUSH2 0x199 JUMPI JUMP JUMPDEST PUSH1 0x24 CALLDATALOAD SWAP1 PUSH1 0x1 PUSH1 0x1 PUSH1 0xA0 SHL SUB DUP3 AND DUP3 SUB PUSH2 0x199 JUMPI JUMP JUMPDEST SWAP2 DUP2 PUSH1 0x1F DUP5 ADD SLT ISZERO PUSH2 0x199 JUMPI DUP3 CALLDATALOAD SWAP2 PUSH8 0xFFFFFFFFFFFFFFFF DUP4 GT PUSH2 0x199 JUMPI PUSH1 0x20 DUP4 DUP2 DUP7 ADD SWAP6 ADD ADD GT PUSH2 0x199 JUMPI JUMP JUMPDEST PUSH1 0x80 SWAP1 PUSH1 0x3 NOT ADD SLT PUSH2 0x199 JUMPI PUSH1 0x4 CALLDATALOAD PUSH1 0x1 PUSH1 0x1 PUSH1 0xA0 SHL SUB DUP2 AND DUP2 SUB PUSH2 0x199 JUMPI SWAP1 PUSH1 0x24 CALLDATALOAD SWAP1 PUSH1 0x44 CALLDATALOAD DUP1 ISZERO ISZERO DUP2 SUB PUSH2 0x199 JUMPI SWAP1 PUSH1 0x64 CALLDATALOAD SWAP1 JUMP JUMPDEST DUP1 MLOAD DUP1 DUP4 MSTORE PUSH1 0x20 SWAP3 SWAP2 DUP2 SWAP1 DUP5 ADD DUP5 DUP5 ADD MCOPY PUSH0 DUP3 DUP3 ADD DUP5 ADD MSTORE PUSH1 0x1F ADD PUSH1 0x1F NOT AND ADD ADD SWAP1 JUMP JUMPDEST PUSH1 0x60 SWAP1 PUSH1 0x3 NOT ADD SLT PUSH2 0x199 JUMPI PUSH1 0x4 CALLDATALOAD SWAP1 PUSH1 0x24 CALLDATALOAD DUP1 ISZERO ISZERO DUP2 SUB PUSH2 0x199 JUMPI SWAP1 PUSH1 0x44 CALLDATALOAD SWAP1 JUMP JUMPDEST SWAP2 DUP2 PUSH1 0x1F DUP5 ADD SLT ISZERO PUSH2 0x199 JUMPI DUP3 CALLDATALOAD SWAP2 PUSH8 0xFFFFFFFFFFFFFFFF DUP4 GT PUSH2 0x199 JUMPI PUSH1 0x20 DUP1 DUP6 ADD SWAP5 DUP5 PUSH1 0x5 SHL ADD ADD GT PUSH2 0x199 JUMPI JUMP JUMPDEST PUSH1 0x2 SLOAD DUP2 LT ISZERO PUSH2 0x1245 JUMPI PUSH1 0x2 PUSH0 DUP2 DUP2 MSTORE SWAP2 SWAP1 SHL PUSH32 0x405787FA12A823E0F2B7631CC41B3BA8828B3321CA811111FA75CD3AA3BB5ACE ADD SWAP2 JUMP JUMPDEST PUSH4 0x4E487B71 PUSH1 0xE0 SHL PUSH0 MSTORE PUSH1 0x32 PUSH1 0x4 MSTORE PUSH1 0x24 PUSH0 REVERT JUMPDEST ISZERO PUSH2 0x1260 JUMPI JUMP JUMPDEST PUSH1 0x40 MLOAD PUSH3 0x461BCD PUSH1 0xE5 SHL DUP2 MSTORE PUSH1 0x20 PUSH1 0x4 DUP3 ADD MSTORE PUSH1 0x11 PUSH1 0x24 DUP3 ADD MSTORE PUSH17 0x4E6F206578706972656420726F756E6473 PUSH1 0x78 SHL PUSH1 0x44 DUP3 ADD MSTORE PUSH1 0x64 SWAP1 REVERT JUMPDEST ISZERO PUSH2 0x12A0 JUMPI JUMP JUMPDEST PUSH1 0x40 MLOAD PUSH3 0x461BCD PUSH1 0xE5 SHL DUP2 MSTORE PUSH1 0x20 PUSH1 0x4 DUP3 ADD MSTORE PUSH1 0x17 PUSH1 0x24 DUP3 ADD MSTORE PUSH32 0x4E6F7420736574746C656D656E74206F70657261746F72000000000000000000 PUSH1 0x44 DUP3 ADD MSTORE PUSH1 0x64 SWAP1 REVERT JUMPDEST ISZERO PUSH2 0x12EC JUMPI JUMP JUMPDEST PUSH1 0x40 MLOAD PUSH3 0x461BCD PUSH1 0xE5 SHL DUP2 MSTORE PUSH1 0x20 PUSH1 0x4 DUP3 ADD MSTORE PUSH1 0xD PUSH1 0x24 DUP3 ADD MSTORE PUSH13 0x526F756E64206D697373696E67 PUSH1 0x98 SHL PUSH1 0x44 DUP3 ADD MSTORE PUSH1 0x64 SWAP1 REVERT JUMPDEST ISZERO PUSH2 0x1328 JUMPI JUMP JUMPDEST PUSH1 0x40 MLOAD PUSH3 0x461BCD PUSH1 0xE5 SHL DUP2 MSTORE PUSH1 0x20 PUSH1 0x4 DUP3 ADD MSTORE PUSH1 0xA PUSH1 0x24 DUP3 ADD MSTORE PUSH10 0x526F756E64206C697665 PUSH1 0xB0 SHL PUSH1 0x44 DUP3 ADD MSTORE PUSH1 0x64 SWAP1 REVERT JUMPDEST ISZERO PUSH2 0x1361 JUMPI JUMP JUMPDEST PUSH1 0x40 MLOAD PUSH3 0x461BCD PUSH1 0xE5 SHL DUP2 MSTORE PUSH1 0x20 PUSH1 0x4 DUP3 ADD MSTORE PUSH1 0x10 PUSH1 0x24 DUP3 ADD MSTORE PUSH16 0x105B1C9958591E481C995CDBDB1D9959 PUSH1 0x82 SHL PUSH1 0x44 DUP3 ADD MSTORE PUSH1 0x64 SWAP1 REVERT JUMPDEST PUSH2 0x13EB SWAP1 DUP1 PUSH0 MSTORE PUSH1 0x3 PUSH1 0x20 MSTORE PUSH2 0x13E5 PUSH2 0x47D PUSH1 0x40 PUSH0 KECCAK256 PUSH2 0x13BE PUSH1 0x2 DUP3 ADD SLOAD ISZERO ISZERO PUSH2 0x12E5 JUMP JUMPDEST PUSH2 0x13CE PUSH1 0x3 DUP3 ADD SLOAD TIMESTAMP LT ISZERO PUSH2 0x1321 JUMP JUMPDEST PUSH2 0x13DF PUSH1 0xFF PUSH1 0x6 DUP4 ADD SLOAD AND ISZERO PUSH2 0x135A JUMP JUMPDEST SLOAD PUSH2 0x120D JUMP JUMPDEST SWAP1 PUSH2 0x1D35 JUMP JUMPDEST SWAP1 JUMP JUMPDEST SWAP1 PUSH1 0x1F DUP1 NOT SWAP2 ADD AND DUP2 ADD SWAP1 DUP2 LT PUSH8 0xFFFFFFFFFFFFFFFF DUP3 GT OR PUSH2 0x7A8 JUMPI PUSH1 0x40 MSTORE JUMP JUMPDEST PUSH1 0x2 SLOAD PUSH0 JUMPDEST DUP2 DUP2 LT PUSH2 0x1434 JUMPI POP POP PUSH0 SWAP1 PUSH1 0x40 MLOAD PUSH2 0x142E PUSH1 0x20 DUP3 PUSH2 0x13EE JUMP JUMPDEST PUSH0 DUP2 MSTORE SWAP1 JUMP JUMPDEST PUSH1 0x2 PUSH2 0x143F DUP3 PUSH2 0x120D JUMP JUMPDEST POP ADD SLOAD DUP1 ISZERO ISZERO SWAP1 DUP2 PUSH2 0x148D JUMPI JUMPDEST DUP2 PUSH2 0x1473 JUMPI JUMPDEST POP PUSH2 0x145F JUMPI PUSH1 0x1 ADD PUSH2 0x1415 JUMP JUMPDEST POP POP PUSH1 0x1 SWAP1 PUSH1 0x20 PUSH2 0x142E PUSH1 0x40 MLOAD SWAP2 DUP3 PUSH2 0x13EE JUMP JUMPDEST SWAP1 POP PUSH0 MSTORE PUSH1 0x3 PUSH1 0x20 MSTORE PUSH1 0x3 PUSH1 0x40 PUSH0 KECCAK256 ADD SLOAD TIMESTAMP LT ISZERO PUSH0 PUSH2 0x1452 JUMP JUMPDEST DUP1 SWAP2 POP PUSH0 MSTORE PUSH1 0x3 PUSH1 0x20 MSTORE PUSH1 0xFF PUSH1 0x6 PUSH1 0x40 PUSH0 KECCAK256 ADD SLOAD AND ISZERO SWAP1 PUSH2 0x144C JUMP JUMPDEST SWAP1 PUSH2 0x26F2 DUP3 MUL SWAP2 DUP1 DUP4 DIV PUSH2 0x26F2 EQ SWAP1 ISZERO OR ISZERO PUSH2 0x6DD JUMPI JUMP JUMPDEST DUP2 DUP2 MUL SWAP3 SWAP2 DUP2 ISZERO SWAP2 DUP5 DIV EQ OR ISZERO PUSH2 0x6DD JUMPI JUMP JUMPDEST DUP2 ISZERO PUSH2 0x14DE JUMPI DIV SWAP1 JUMP JUMPDEST PUSH4 0x4E487B71 PUSH1 0xE0 SHL PUSH0 MSTORE PUSH1 0x12 PUSH1 0x4 MSTORE PUSH1 0x24 PUSH0 REVERT JUMPDEST SWAP1 PUSH2 0x1507 SWAP2 PUSH0 MSTORE PUSH1 0x3 PUSH1 0x20 MSTORE PUSH1 0x40 PUSH0 KECCAK256 PUSH2 0x1E43 JUMP JUMPDEST PUSH2 0x2710 DUP3 MUL SWAP2 DUP1 DUP4 DIV PUSH2 0x2710 EQ SWAP1 ISZERO OR ISZERO PUSH2 0x6DD JUMPI PUSH2 0x13EB SWAP2 PUSH2 0x14D4 JUMP JUMPDEST ISZERO PUSH2 0x152C JUMPI JUMP JUMPDEST PUSH1 0x40 MLOAD PUSH3 0x461BCD PUSH1 0xE5 SHL DUP2 MSTORE PUSH1 0x20 PUSH1 0x4 DUP3 ADD MSTORE PUSH1 0xD PUSH1 0x24 DUP3 ADD MSTORE PUSH13 0x125B9D985B1A5908185CDCD95D PUSH1 0x9A SHL PUSH1 0x44 DUP3 ADD MSTORE PUSH1 0x64 SWAP1 REVERT JUMPDEST SWAP1 PUSH1 0x1 DUP3 DUP2 SHR SWAP3 AND DUP1 ISZERO PUSH2 0x158F JUMPI JUMPDEST PUSH1 0x20 DUP4 LT EQ PUSH2 0x157B JUMPI JUMP JUMPDEST PUSH4 0x4E487B71 PUSH1 0xE0 SHL PUSH0 MSTORE PUSH1 0x22 PUSH1 0x4 MSTORE PUSH1 0x24 PUSH0 REVERT JUMPDEST SWAP2 PUSH1 0x7F AND SWAP2 PUSH2 0x1570 JUMP JUMPDEST PUSH0 SWAP3 SWAP2 DUP2 SLOAD SWAP2 PUSH2 0x15A8 DUP4 PUSH2 0x1561 JUMP JUMPDEST DUP1 DUP4 MSTORE SWAP3 PUSH1 0x1 DUP2 AND SWAP1 DUP2 ISZERO PUSH2 0x15FD JUMPI POP PUSH1 0x1 EQ PUSH2 0x15C4 JUMPI POP POP POP JUMP JUMPDEST PUSH0 SWAP1 DUP2 MSTORE PUSH1 0x20 DUP2 KECCAK256 SWAP4 SWAP5 POP SWAP2 SWAP3 JUMPDEST DUP4 DUP4 LT PUSH2 0x15E3 JUMPI POP PUSH1 0x20 SWAP3 POP ADD ADD SWAP1 JUMP JUMPDEST PUSH1 0x1 DUP2 PUSH1 0x20 SWAP3 SWAP5 SWAP4 SWAP5 SLOAD DUP4 DUP6 DUP8 ADD ADD MSTORE ADD SWAP2 ADD SWAP2 SWAP1 PUSH2 0x15D2 JUMP JUMPDEST SWAP2 POP POP PUSH1 0x20 SWAP4 SWAP5 POP PUSH1 0xFF SWAP3 SWAP2 SWAP3 NOT AND DUP4 DUP4 ADD MSTORE ISZERO ISZERO PUSH1 0x5 SHL ADD ADD SWAP1 JUMP JUMPDEST SWAP2 SWAP1 DUP3 SUB SWAP2 DUP3 GT PUSH2 0x6DD JUMPI JUMP JUMPDEST SWAP2 SWAP1 DUP2 LT ISZERO PUSH2 0x1245 JUMPI PUSH1 0x5 SHL ADD SWAP1 JUMP JUMPDEST PUSH0 SLOAD PUSH1 0x1 PUSH1 0x1 PUSH1 0xA0 SHL SUB AND CALLER SUB PUSH2 0x164A JUMPI JUMP JUMPDEST PUSH4 0x118CDAA7 PUSH1 0xE0 SHL PUSH0 MSTORE CALLER PUSH1 0x4 MSTORE PUSH1 0x24 PUSH0 REVERT JUMPDEST PUSH1 0x2 PUSH32 0x9B779B17422D0DF92223018B32B4D1FA46E071723D6817E2486D003BECC55F00 SLOAD EQ PUSH2 0x16AC JUMPI PUSH1 0x2 PUSH32 0x9B779B17422D0DF92223018B32B4D1FA46E071723D6817E2486D003BECC55F00 SSTORE JUMP JUMPDEST PUSH4 0x3EE5AEB5 PUSH1 0xE0 SHL PUSH0 MSTORE PUSH1 0x4 PUSH0 REVERT JUMPDEST ISZERO PUSH2 0x16C2 JUMPI JUMP JUMPDEST PUSH1 0x40 MLOAD PUSH3 0x461BCD PUSH1 0xE5 SHL DUP2 MSTORE PUSH1 0x20 PUSH1 0x4 DUP3 ADD MSTORE PUSH1 0xE PUSH1 0x24 DUP3 ADD MSTORE PUSH14 0x149BDD5B99081C995CDBDB1D9959 PUSH1 0x92 SHL PUSH1 0x44 DUP3 ADD MSTORE PUSH1 0x64 SWAP1 REVERT JUMPDEST ISZERO PUSH2 0x16FF JUMPI JUMP JUMPDEST PUSH1 0x40 MLOAD PUSH3 0x461BCD PUSH1 0xE5 SHL DUP2 MSTORE PUSH1 0x20 PUSH1 0x4 DUP3 ADD MSTORE PUSH1 0xB PUSH1 0x24 DUP3 ADD MSTORE PUSH11 0x149BDD5B9908195B991959 PUSH1 0xAA SHL PUSH1 0x44 DUP3 ADD MSTORE PUSH1 0x64 SWAP1 REVERT JUMPDEST SWAP4 SWAP3 SWAP4 DUP2 PUSH0 MSTORE PUSH1 0x3 PUSH1 0x20 MSTORE PUSH1 0x40 PUSH0 KECCAK256 SWAP5 PUSH2 0x1751 PUSH1 0x2 DUP8 ADD SLOAD ISZERO ISZERO PUSH2 0x12E5 JUMP JUMPDEST PUSH2 0x1762 PUSH1 0xFF PUSH1 0x6 DUP9 ADD SLOAD AND ISZERO PUSH2 0x16BB JUMP JUMPDEST PUSH2 0x1771 PUSH1 0x3 DUP8 ADD SLOAD TIMESTAMP LT PUSH2 0x16F8 JUMP JUMPDEST DUP1 ISZERO PUSH2 0x19C0 JUMPI PUSH1 0x1 PUSH1 0x1 PUSH1 0xA0 SHL SUB DUP3 AND PUSH0 SWAP1 DUP2 MSTORE PUSH1 0xC DUP8 ADD PUSH1 0x20 MSTORE PUSH1 0x40 SWAP1 KECCAK256 DUP5 ISZERO PUSH2 0x1911 JUMPI DUP1 SLOAD SWAP7 DUP3 DUP9 LT PUSH2 0x18DC JUMPI PUSH1 0xB SWAP2 DUP6 PUSH0 MSTORE PUSH1 0x3 PUSH1 0x20 MSTORE PUSH2 0x2710 PUSH2 0x17C9 DUP2 PUSH2 0xA11 PUSH2 0x17C3 PUSH1 0x1 PUSH1 0x40 PUSH0 KECCAK256 PUSH2 0x1E43 JUMP JUMPDEST DUP9 PUSH2 0x14C1 JUMP JUMPDEST DIV SWAP1 PUSH2 0x17D6 DUP6 DUP4 SWAP12 PUSH2 0x161A JUMP JUMPDEST SWAP1 SSTORE PUSH1 0x9 DUP3 ADD PUSH2 0x17E7 DUP6 DUP3 SLOAD PUSH2 0x161A JUMP JUMPDEST SWAP1 SSTORE PUSH1 0x7 DUP3 ADD DUP1 SLOAD SWAP1 SWAP2 DUP2 DUP2 LT PUSH2 0x18CD JUMPI POP POP PUSH0 SWAP1 JUMPDEST SSTORE JUMPDEST ADD SWAP2 DUP3 SLOAD SWAP3 DUP4 DUP9 GT PUSH2 0x188F JUMPI PUSH2 0x1836 DUP9 PUSH32 0xAADA1654951776634696A879ED1112C89CAF26784878E51517A1F1B7FABD3D06 SWAP6 PUSH2 0x161A JUMP JUMPDEST SWAP1 SSTORE PUSH2 0x1863 DUP8 DUP3 PUSH32 0x0 PUSH2 0x2294 JUMP JUMPDEST PUSH1 0x40 DUP1 MLOAD SWAP6 ISZERO ISZERO DUP7 MSTORE PUSH1 0x20 DUP7 ADD SWAP3 SWAP1 SWAP3 MSTORE SWAP1 DUP5 ADD DUP7 SWAP1 MSTORE PUSH1 0x1 PUSH1 0x1 PUSH1 0xA0 SHL SUB AND SWAP3 DUP1 PUSH1 0x60 DUP2 ADD JUMPDEST SUB SWAP1 LOG3 JUMP JUMPDEST PUSH1 0x40 MLOAD PUSH3 0x461BCD PUSH1 0xE5 SHL DUP2 MSTORE PUSH1 0x20 PUSH1 0x4 DUP3 ADD MSTORE PUSH1 0x16 PUSH1 0x24 DUP3 ADD MSTORE PUSH22 0x496E73756666696369656E74206C6971756964697479 PUSH1 0x50 SHL PUSH1 0x44 DUP3 ADD MSTORE PUSH1 0x64 SWAP1 REVERT JUMPDEST PUSH2 0x18D6 SWAP2 PUSH2 0x161A JUMP JUMPDEST SWAP1 PUSH2 0x17FD JUMP JUMPDEST PUSH1 0x40 MLOAD PUSH3 0x461BCD PUSH1 0xE5 SHL DUP2 MSTORE PUSH1 0x20 PUSH1 0x4 DUP3 ADD MSTORE PUSH1 0xD PUSH1 0x24 DUP3 ADD MSTORE PUSH13 0x4E6F7420656E6F75676820555 PUSH1 0x9C SHL PUSH1 0x44 DUP3 ADD MSTORE PUSH1 0x64 SWAP1 REVERT JUMPDEST PUSH1 0x1 ADD DUP1 SLOAD SWAP7 DUP3 DUP9 LT PUSH2 0x1989 JUMPI PUSH1 0xB SWAP2 DUP6 PUSH0 MSTORE PUSH1 0x3 PUSH1 0x20 MSTORE PUSH2 0x2710 PUSH2 0x1940 DUP2 PUSH2 0xA11 PUSH2 0x17C3 PUSH0 PUSH1 0x40 DUP2 KECCAK256 PUSH2 0x1E43 JUMP JUMPDEST DIV SWAP1 PUSH2 0x194D DUP6 DUP4 SWAP12 PUSH2 0x161A JUMP JUMPDEST SWAP1 SSTORE PUSH1 0xA DUP3 ADD PUSH2 0x195E DUP6 DUP3 SLOAD PUSH2 0x161A JUMP JUMPDEST SWAP1 SSTORE PUSH1 0x8 DUP3 ADD DUP1 SLOAD SWAP1 SWAP2 DUP2 DUP2 LT PUSH2 0x197A JUMPI POP POP PUSH0 SWAP1 JUMPDEST SSTORE PUSH2 0x17FF JUMP JUMPDEST PUSH2 0x1983 SWAP2 PUSH2 0x161A JUMP JUMPDEST SWAP1 PUSH2 0x1974 JUMP JUMPDEST PUSH1 0x40 MLOAD PUSH3 0x461BCD PUSH1 0xE5 SHL DUP2 MSTORE PUSH1 0x20 PUSH1 0x4 DUP3 ADD MSTORE PUSH1 0xF PUSH1 0x24 DUP3 ADD MSTORE PUSH15 0x2737BA1032B737BAB3B4102227ABA7 PUSH1 0x89 SHL PUSH1 0x44 DUP3 ADD MSTORE PUSH1 0x64 SWAP1 REVERT JUMPDEST PUSH1 0x40 MLOAD PUSH3 0x461BCD PUSH1 0xE5 SHL DUP2 MSTORE PUSH1 0x20 PUSH1 0x4 DUP3 ADD MSTORE PUSH1 0xF PUSH1 0x24 DUP3 ADD MSTORE PUSH15 0x14DA185C995CC81C995C5D5A5C9959 PUSH1 0x8A SHL PUSH1 0x44 DUP3 ADD MSTORE PUSH1 0x64 SWAP1 REVERT JUMPDEST SWAP2 SWAP1 SWAP2 DUP3 PUSH0 MSTORE PUSH1 0x3 PUSH1 0x20 MSTORE PUSH1 0x40 PUSH0 KECCAK256 PUSH1 0x6 DUP2 ADD SLOAD PUSH1 0xFF DUP2 AND ISZERO PUSH2 0x1BD8 JUMPI PUSH1 0x1 DUP1 PUSH1 0xA0 SHL SUB DUP4 AND PUSH0 MSTORE PUSH1 0xC DUP3 ADD PUSH1 0x20 MSTORE PUSH1 0x40 PUSH0 KECCAK256 PUSH1 0x2 DUP2 ADD SWAP1 DUP2 SLOAD SWAP3 PUSH1 0xFF DUP5 AND PUSH2 0x1BA1 JUMPI PUSH1 0x8 SHR PUSH1 0xFF AND SWAP1 DUP2 ISZERO PUSH2 0x1B97 JUMPI SLOAD SWAP1 JUMPDEST ISZERO PUSH2 0x1B8C JUMPI PUSH1 0x9 DUP5 ADD SLOAD SWAP3 JUMPDEST DUP2 ISZERO PUSH2 0x1B53 JUMPI DUP4 ISZERO PUSH2 0x1B21 JUMPI PUSH2 0x1A82 SWAP5 PUSH2 0x1A7D SWAP4 PUSH1 0x1 PUSH1 0xB SWAP4 PUSH1 0xFF NOT AND OR SWAP1 SSTORE ADD SLOAD PUSH2 0x14C1 JUMP JUMPDEST PUSH2 0x14D4 JUMP JUMPDEST SWAP3 DUP4 ISZERO PUSH2 0x1AEE JUMPI PUSH2 0x1AB4 DUP5 DUP4 PUSH32 0x0 PUSH2 0x2294 JUMP JUMPDEST PUSH1 0x40 MLOAD DUP5 DUP2 MSTORE PUSH1 0x1 PUSH1 0x1 PUSH1 0xA0 SHL SUB SWAP1 SWAP3 AND SWAP2 PUSH32 0x5380CF6FE903B40C6D5A9E0DFBCA2F3A423F0A21520B4D5947ED5169BDBA946D SWAP1 PUSH1 0x20 SWAP1 LOG3 JUMP JUMPDEST PUSH1 0x40 MLOAD PUSH3 0x461BCD PUSH1 0xE5 SHL DUP2 MSTORE PUSH1 0x20 PUSH1 0x4 DUP3 ADD MSTORE PUSH1 0xB PUSH1 0x24 DUP3 ADD MSTORE PUSH11 0x4E6F2077696E6E696E6773 PUSH1 0xA8 SHL PUSH1 0x44 DUP3 ADD MSTORE PUSH1 0x64 SWAP1 REVERT JUMPDEST PUSH1 0x40 MLOAD PUSH3 0x461BCD PUSH1 0xE5 SHL DUP2 MSTORE PUSH1 0x20 PUSH1 0x4 DUP3 ADD MSTORE PUSH1 0xA PUSH1 0x24 DUP3 ADD MSTORE PUSH10 0x4E6F2077696E6E657273 PUSH1 0xB0 SHL PUSH1 0x44 DUP3 ADD MSTORE PUSH1 0x64 SWAP1 REVERT JUMPDEST PUSH1 0x40 MLOAD PUSH3 0x461BCD PUSH1 0xE5 SHL DUP2 MSTORE PUSH1 0x20 PUSH1 0x4 DUP3 ADD MSTORE PUSH1 0x11 PUSH1 0x24 DUP3 ADD MSTORE PUSH17 0x4E6F2077696E6E696E6720736861726573 PUSH1 0x78 SHL PUSH1 0x44 DUP3 ADD MSTORE PUSH1 0x64 SWAP1 REVERT JUMPDEST PUSH1 0xA DUP5 ADD SLOAD SWAP3 PUSH2 0x1A56 JUMP JUMPDEST PUSH1 0x1 ADD SLOAD SWAP1 PUSH2 0x1A4A JUMP JUMPDEST PUSH1 0x40 MLOAD PUSH3 0x461BCD PUSH1 0xE5 SHL DUP2 MSTORE PUSH1 0x20 PUSH1 0x4 DUP3 ADD MSTORE PUSH1 0xF PUSH1 0x24 DUP3 ADD MSTORE PUSH15 0x105B1C9958591E4818DB185A5B5959 PUSH1 0x8A SHL PUSH1 0x44 DUP3 ADD MSTORE PUSH1 0x64 SWAP1 REVERT JUMPDEST PUSH1 0x40 MLOAD PUSH3 0x461BCD PUSH1 0xE5 SHL DUP2 MSTORE PUSH1 0x20 PUSH1 0x4 DUP3 ADD MSTORE PUSH1 0xC PUSH1 0x24 DUP3 ADD MSTORE PUSH12 0x139BDD081C995CDBDB1D9959 PUSH1 0xA2 SHL PUSH1 0x44 DUP3 ADD MSTORE PUSH1 0x64 SWAP1 REVERT JUMPDEST MLOAD SWAP1 PUSH10 0xFFFFFFFFFFFFFFFFFFFF DUP3 AND DUP3 SUB PUSH2 0x199 JUMPI JUMP JUMPDEST PUSH1 0x40 MLOAD PUSH4 0x3FABE5A3 PUSH1 0xE2 SHL DUP2 MSTORE SWAP1 PUSH1 0xA0 SWAP1 DUP3 SWAP1 PUSH1 0x4 SWAP1 DUP3 SWAP1 PUSH1 0x1 PUSH1 0x1 PUSH1 0xA0 SHL SUB AND GAS STATICCALL DUP1 ISZERO PUSH2 0x1D2A JUMPI PUSH0 SWAP2 PUSH0 SWAP2 PUSH2 0x1CD6 JUMPI JUMPDEST POP PUSH0 DUP3 SGT ISZERO PUSH2 0x1C9A JUMPI ISZERO PUSH2 0x1C66 JUMPI SWAP1 JUMP JUMPDEST PUSH1 0x40 MLOAD PUSH3 0x461BCD PUSH1 0xE5 SHL DUP2 MSTORE PUSH1 0x20 PUSH1 0x4 DUP3 ADD MSTORE PUSH1 0xC PUSH1 0x24 DUP3 ADD MSTORE PUSH12 0x5374616C65206F7261636C65 PUSH1 0xA0 SHL PUSH1 0x44 DUP3 ADD MSTORE PUSH1 0x64 SWAP1 REVERT JUMPDEST PUSH1 0x40 MLOAD PUSH3 0x461BCD PUSH1 0xE5 SHL DUP2 MSTORE PUSH1 0x20 PUSH1 0x4 DUP3 ADD MSTORE PUSH1 0x14 PUSH1 0x24 DUP3 ADD MSTORE PUSH20 0x496E76616C6964206F7261636C65207072696365 PUSH1 0x60 SHL PUSH1 0x44 DUP3 ADD MSTORE PUSH1 0x64 SWAP1 REVERT JUMPDEST SWAP2 POP POP PUSH1 0xA0 DUP2 RETURNDATASIZE PUSH1 0xA0 GT PUSH2 0x1D22 JUMPI JUMPDEST DUP2 PUSH2 0x1CF2 PUSH1 0xA0 SWAP4 DUP4 PUSH2 0x13EE JUMP JUMPDEST DUP2 ADD SUB SLT PUSH2 0x199 JUMPI PUSH2 0x1D03 DUP2 PUSH2 0x1C0C JUMP JUMPDEST POP PUSH1 0x20 DUP2 ADD MLOAD PUSH2 0x1D1A PUSH1 0x80 PUSH1 0x60 DUP5 ADD MLOAD SWAP4 ADD PUSH2 0x1C0C JUMP JUMPDEST POP SWAP1 PUSH0 PUSH2 0x1C55 JUMP JUMPDEST RETURNDATASIZE SWAP2 POP PUSH2 0x1CE5 JUMP JUMPDEST PUSH1 0x40 MLOAD RETURNDATASIZE PUSH0 DUP3 RETURNDATACOPY RETURNDATASIZE SWAP1 REVERT JUMPDEST SWAP1 DUP2 PUSH0 MSTORE PUSH1 0x3 PUSH1 0x20 MSTORE PUSH1 0x40 PUSH0 KECCAK256 PUSH2 0x1D51 PUSH1 0x2 DUP3 ADD SLOAD ISZERO ISZERO PUSH2 0x12E5 JUMP JUMPDEST PUSH2 0x1D61 PUSH1 0x3 DUP3 ADD SLOAD TIMESTAMP LT ISZERO PUSH2 0x1321 JUMP JUMPDEST PUSH1 0x6 DUP2 ADD SWAP3 DUP4 SLOAD SWAP1 PUSH2 0x1D76 PUSH1 0xFF DUP4 AND ISZERO PUSH2 0x135A JUMP JUMPDEST DUP4 ISZERO PUSH2 0x1DFD JUMPI PUSH32 0x18B8F645D0C683E042C20C6ED5ED8044FC6B4263380663FC67242D9BDDA24F1A PUSH1 0xFF PUSH2 0x13EB SWAP7 DUP6 DUP8 PUSH1 0x5 PUSH2 0x1DF5 SWAP9 ADD SSTORE PUSH1 0x1 PUSH1 0x4 DUP3 ADD SLOAD SWAP7 PUSH2 0xFF00 DUP9 DUP12 GT PUSH1 0x8 SHL AND SWAP1 PUSH2 0xFFFF NOT AND OR OR DUP1 SWAP3 SSTORE SLOAD SWAP6 DUP7 SWAP6 DUP9 PUSH1 0x40 MLOAD SWAP5 DUP6 SWAP5 PUSH1 0x8 SHR AND SWAP2 DUP5 SWAP2 SWAP3 PUSH1 0x40 SWAP2 SWAP5 SWAP4 PUSH1 0x60 DUP5 ADD SWAP6 DUP5 MSTORE PUSH1 0x20 DUP5 ADD MSTORE ISZERO ISZERO SWAP2 ADD MSTORE JUMP JUMPDEST SUB SWAP1 LOG3 PUSH2 0x2113 JUMP JUMPDEST PUSH1 0x40 MLOAD PUSH3 0x461BCD PUSH1 0xE5 SHL DUP2 MSTORE PUSH1 0x20 PUSH1 0x4 DUP3 ADD MSTORE PUSH1 0x11 PUSH1 0x24 DUP3 ADD MSTORE PUSH17 0x496E76616C696420656E64207072696365 PUSH1 0x78 SHL PUSH1 0x44 DUP3 ADD MSTORE PUSH1 0x64 SWAP1 REVERT JUMPDEST SWAP2 SWAP1 DUP3 ADD DUP1 SWAP3 GT PUSH2 0x6DD JUMPI JUMP JUMPDEST PUSH2 0x1E80 PUSH32 0x0 PUSH1 0x8 PUSH2 0x1E77 PUSH1 0x7 DUP6 ADD SLOAD DUP4 PUSH2 0x1E36 JUMP JUMPDEST SWAP4 ADD SLOAD SWAP1 PUSH2 0x1E36 JUMP JUMPDEST PUSH2 0x1E8A DUP2 DUP4 PUSH2 0x1E36 JUMP JUMPDEST SWAP3 ISZERO PUSH2 0x1ED1 JUMPI POP SWAP1 JUMPDEST PUSH2 0x2710 DUP3 MUL SWAP2 DUP1 DUP4 DIV PUSH2 0x2710 EQ SWAP1 ISZERO OR ISZERO PUSH2 0x6DD JUMPI PUSH2 0x1EB1 SWAP2 PUSH2 0x14D4 JUMP JUMPDEST DUP1 ISZERO PUSH2 0x1ECB JUMPI PUSH2 0x2710 DUP2 LT ISZERO PUSH2 0x1EC4 JUMPI SWAP1 JUMP JUMPDEST POP PUSH2 0x270F SWAP1 JUMP JUMPDEST POP PUSH1 0x1 SWAP1 JUMP JUMPDEST SWAP1 POP SWAP1 PUSH2 0x1E93 JUMP JUMPDEST SWAP2 SWAP4 SWAP3 DUP2 PUSH0 MSTORE PUSH1 0x3 PUSH1 0x20 MSTORE PUSH1 0x40 PUSH0 KECCAK256 SWAP5 PUSH2 0x1EF8 PUSH1 0x2 DUP8 ADD SLOAD ISZERO ISZERO PUSH2 0x12E5 JUMP JUMPDEST PUSH2 0x1F09 PUSH1 0xFF PUSH1 0x6 DUP9 ADD SLOAD AND ISZERO PUSH2 0x16BB JUMP JUMPDEST PUSH2 0x1F18 PUSH1 0x3 DUP8 ADD SLOAD TIMESTAMP LT PUSH2 0x16F8 JUMP JUMPDEST DUP2 ISZERO PUSH2 0x20DC JUMPI PUSH2 0x1F29 DUP3 DUP3 DUP6 PUSH2 0x14F2 JUMP JUMPDEST SWAP6 DUP7 ISZERO PUSH2 0x20AB JUMPI PUSH32 0x0 PUSH1 0x40 MLOAD SWAP6 PUSH4 0x23B872DD PUSH1 0xE0 SHL PUSH0 MSTORE PUSH1 0x1 DUP1 PUSH1 0xA0 SHL SUB AND SWAP6 DUP7 PUSH1 0x4 MSTORE ADDRESS PUSH1 0x24 MSTORE DUP5 PUSH1 0x44 MSTORE PUSH1 0x20 PUSH0 PUSH1 0x64 DUP2 DUP1 DUP7 GAS CALL SWAP1 PUSH1 0x1 PUSH0 MLOAD EQ DUP3 AND ISZERO PUSH2 0x208A JUMPI JUMPDEST PUSH1 0x40 MSTORE PUSH0 PUSH1 0x60 MSTORE ISZERO PUSH2 0x206A JUMPI POP SWAP1 PUSH1 0xB PUSH32 0x165674D0275CF6B01F7D28D8814DBD4BE3CFA67CEB12934B78C648072470A0A6 SWAP4 SWAP3 DUP7 PUSH0 MSTORE PUSH1 0xC DUP2 ADD PUSH1 0x20 MSTORE PUSH1 0x40 PUSH0 KECCAK256 DUP4 PUSH0 EQ PUSH2 0x2033 JUMPI PUSH2 0x1FDF DUP11 DUP3 SLOAD PUSH2 0x1E36 JUMP JUMPDEST SWAP1 SSTORE PUSH1 0x9 DUP2 ADD PUSH2 0x1FF0 DUP11 DUP3 SLOAD PUSH2 0x1E36 JUMP JUMPDEST SWAP1 SSTORE PUSH1 0x7 DUP2 ADD PUSH2 0x2001 DUP6 DUP3 SLOAD PUSH2 0x1E36 JUMP JUMPDEST SWAP1 SSTORE JUMPDEST ADD PUSH2 0x2010 DUP4 DUP3 SLOAD PUSH2 0x1E36 JUMP JUMPDEST SWAP1 SSTORE PUSH1 0x40 DUP1 MLOAD SWAP2 ISZERO ISZERO DUP3 MSTORE PUSH1 0x20 DUP3 ADD SWAP3 SWAP1 SWAP3 MSTORE SWAP1 DUP2 ADD DUP7 SWAP1 MSTORE DUP1 PUSH1 0x60 DUP2 ADD PUSH2 0x188A JUMP JUMPDEST PUSH1 0x1 ADD PUSH2 0x2041 DUP11 DUP3 SLOAD PUSH2 0x1E36 JUMP JUMPDEST SWAP1 SSTORE PUSH1 0xA DUP2 ADD PUSH2 0x2052 DUP11 DUP3 SLOAD PUSH2 0x1E36 JUMP JUMPDEST SWAP1 SSTORE PUSH1 0x8 DUP2 ADD PUSH2 0x2063 DUP6 DUP3 SLOAD PUSH2 0x1E36 JUMP JUMPDEST SWAP1 SSTORE PUSH2 0x2004 JUMP JUMPDEST PUSH4 0x5274AFE7 PUSH1 0xE0 SHL PUSH0 SWAP1 DUP2 MSTORE PUSH1 0x1 PUSH1 0x1 PUSH1 0xA0 SHL SUB SWAP2 SWAP1 SWAP2 AND PUSH1 0x4 MSTORE PUSH1 0x24 SWAP1 REVERT JUMPDEST SWAP1 PUSH1 0x1 DUP2 ISZERO AND PUSH2 0x20A2 JUMPI DUP3 EXTCODESIZE ISZERO ISZERO RETURNDATASIZE ISZERO AND AND SWAP1 PUSH2 0x1F8C JUMP JUMPDEST POP RETURNDATASIZE PUSH0 DUP3 RETURNDATACOPY RETURNDATASIZE SWAP1 REVERT JUMPDEST PUSH1 0x40 MLOAD PUSH3 0x461BCD PUSH1 0xE5 SHL DUP2 MSTORE PUSH1 0x20 PUSH1 0x4 DUP3 ADD MSTORE PUSH1 0x9 PUSH1 0x24 DUP3 ADD MSTORE PUSH9 0x4E6F20736861726573 PUSH1 0xB8 SHL PUSH1 0x44 DUP3 ADD MSTORE PUSH1 0x64 SWAP1 REVERT JUMPDEST PUSH1 0x40 MLOAD PUSH3 0x461BCD PUSH1 0xE5 SHL DUP2 MSTORE PUSH1 0x20 PUSH1 0x4 DUP3 ADD MSTORE PUSH1 0xF PUSH1 0x24 DUP3 ADD MSTORE PUSH15 0x105B5BDD5B9D081C995C5D5A5C9959 PUSH1 0x8A SHL PUSH1 0x44 DUP3 ADD MSTORE PUSH1 0x64 SWAP1 REVERT JUMPDEST SWAP2 SWAP1 SWAP2 PUSH2 0x211F DUP2 PUSH2 0x120D JUMP JUMPDEST POP PUSH1 0xFF PUSH1 0x3 DUP3 ADD SLOAD AND ISZERO PUSH2 0x225E JUMPI DUP4 ISZERO PUSH2 0x2223 JUMPI PUSH1 0x5 SLOAD PUSH0 NOT DUP2 EQ PUSH2 0x6DD JUMPI PUSH1 0x1 ADD SWAP1 DUP2 PUSH1 0x5 SSTORE DUP2 SWAP5 DUP3 PUSH0 MSTORE PUSH1 0x3 PUSH1 0x20 MSTORE PUSH1 0x40 PUSH0 KECCAK256 SWAP2 DUP5 DUP4 SSTORE DUP5 PUSH0 MSTORE PUSH1 0x4 PUSH1 0x20 MSTORE PUSH1 0x40 PUSH0 KECCAK256 SLOAD PUSH1 0x1 DUP2 ADD DUP1 SWAP2 GT PUSH2 0x6DD JUMPI PUSH1 0x1 DUP5 ADD SSTORE PUSH1 0x2 DUP4 ADD SWAP2 TIMESTAMP DUP4 SSTORE PUSH2 0x12C TIMESTAMP ADD SWAP4 DUP5 TIMESTAMP GT PUSH2 0x6DD JUMPI PUSH1 0x4 DUP2 PUSH1 0x3 DUP5 SWAP4 ADD SWAP7 DUP8 SSTORE ADD SSTORE DUP5 PUSH1 0x2 DUP4 ADD SSTORE DUP6 PUSH0 MSTORE PUSH1 0x4 PUSH1 0x20 MSTORE PUSH1 0x40 PUSH0 KECCAK256 SWAP4 DUP5 SLOAD SWAP4 PUSH1 0x1 PUSH1 0x40 SHL DUP6 LT ISZERO PUSH2 0x7A8 JUMPI PUSH1 0x1 DUP6 ADD DUP1 DUP8 SSTORE DUP6 LT ISZERO PUSH2 0x1245 JUMPI DUP7 PUSH2 0x220E SWAP6 PUSH32 0xCC27B715AB9E66303CB7F1C14FA067DACFDBC3A07B63CA0359F2FA31F828DD8D SWAP8 PUSH0 MSTORE PUSH1 0x20 PUSH0 KECCAK256 ADD SSTORE SLOAD SWAP1 SLOAD SWAP1 PUSH1 0x40 MLOAD SWAP5 DUP6 SWAP5 PUSH1 0x80 DUP7 MSTORE PUSH1 0x80 DUP7 ADD SWAP1 PUSH2 0x1599 JUMP JUMPDEST SWAP3 PUSH1 0x20 DUP6 ADD MSTORE PUSH1 0x40 DUP5 ADD MSTORE PUSH1 0x60 DUP4 ADD MSTORE SUB SWAP1 LOG3 JUMP JUMPDEST PUSH1 0x40 MLOAD PUSH3 0x461BCD PUSH1 0xE5 SHL DUP2 MSTORE PUSH1 0x20 PUSH1 0x4 DUP3 ADD MSTORE PUSH1 0x13 PUSH1 0x24 DUP3 ADD MSTORE PUSH19 0x496E76616C6964207374617274207072696365 PUSH1 0x68 SHL PUSH1 0x44 DUP3 ADD MSTORE PUSH1 0x64 SWAP1 REVERT JUMPDEST PUSH1 0x40 MLOAD PUSH3 0x461BCD PUSH1 0xE5 SHL DUP2 MSTORE PUSH1 0x20 PUSH1 0x4 DUP3 ADD MSTORE PUSH1 0xE PUSH1 0x24 DUP3 ADD MSTORE PUSH14 0x105CDCD95D08191A5CD8589B1959 PUSH1 0x92 SHL PUSH1 0x44 DUP3 ADD MSTORE PUSH1 0x64 SWAP1 REVERT JUMPDEST SWAP2 PUSH1 0x40 MLOAD SWAP2 PUSH4 0xA9059CBB PUSH1 0xE0 SHL PUSH0 MSTORE PUSH1 0x1 DUP1 PUSH1 0xA0 SHL SUB AND PUSH1 0x4 MSTORE PUSH1 0x24 MSTORE PUSH1 0x20 PUSH0 PUSH1 0x44 DUP2 DUP1 DUP7 GAS CALL SWAP1 PUSH1 0x1 PUSH0 MLOAD EQ DUP3 AND ISZERO PUSH2 0x22D4 JUMPI JUMPDEST PUSH1 0x40 MSTORE ISZERO PUSH2 0x206A JUMPI POP JUMP JUMPDEST SWAP1 PUSH1 0x1 DUP2 ISZERO AND PUSH2 0x20A2 JUMPI DUP3 EXTCODESIZE ISZERO ISZERO RETURNDATASIZE ISZERO AND AND SWAP1 PUSH2 0x22C9 JUMP INVALID LOG2 PUSH5 0x6970667358 0x22 SLT KECCAK256 NOT PUSH25 0xCFF9BAE9EF2AC28A316962E271FD53F3C6E090A5CD0182EF2F STOP 0xAD PUSH1 0x8C 0xAF PUSH5 0x736F6C6343 STOP ADDMOD SHR STOP CALLER "},"methodIdentifiers":{"BPS()":"249d39e9","MARKET_DURATION()":"30dc389c","SELL_FEE_BPS()":"9731aa2e","addAsset(string,address)":"adc02a64","buyPosition(uint256,bool,uint256)":"80cac3ee","buyPositionFor(address,uint256,bool,uint256)":"79a7dfbf","checkUpkeep(bytes)":"6e04ff0d","claimWinnings(uint256)":"677bd9ff","claimWinningsFor(address,uint256)":"627d8e33","collateralToken()":"b2016bd4","getAsset(uint256)":"eac8f5b8","getAssetCount()":"a0aead4d","getAssetRoundIds(uint256)":"d7253db9","getCurrentPrice(uint256)":"c55d0f56","getRoundInfo(uint256)":"88c3ffb0","getUserPosition(uint256,address)":"869da9db","owner()":"8da5cb5b","performUpkeep(bytes)":"4585e33b","quoteBuy(uint256,bool,uint256)":"717bd21d","quoteSell(uint256,bool,uint256)":"94af8201","renounceOwnership()":"715018a6","resolveCurrentRound(uint256)":"7be7d786","resolveExpiredRounds()":"f7798671","resolveExpiredRoundsWithPrices(uint256[],uint256[])":"9b40f28d","resolveRound(uint256)":"650b8725","roundCounter()":"febc14b1","sellPosition(uint256,bool,uint256)":"d62ab79a","sellPositionFor(address,uint256,bool,uint256)":"5aad56af","setSettlementOperator(address)":"448758d5","settlementOperator()":"1b6984e8","transferOwnership(address)":"f2fde38b","virtualLiquidityPerSide()":"f06c0f56"}}}}}