{"contracts/FastPriceOracle.sol":{"FastPriceOracle":{"abi":[{"inputs":[{"internalType":"string","name":"_description","type":"string"},{"internalType":"int256","name":"initialAnswer","type":"int256"}],"stateMutability":"nonpayable","type":"constructor"},{"inputs":[{"internalType":"address","name":"owner","type":"address"}],"name":"OwnableInvalidOwner","type":"error"},{"inputs":[{"internalType":"address","name":"account","type":"address"}],"name":"OwnableUnauthorizedAccount","type":"error"},{"anonymous":false,"inputs":[{"indexed":true,"internalType":"int256","name":"current","type":"int256"},{"indexed":true,"internalType":"uint256","name":"roundId","type":"uint256"},{"indexed":false,"internalType":"uint256","name":"updatedAt","type":"uint256"}],"name":"AnswerUpdated","type":"event"},{"anonymous":false,"inputs":[{"indexed":true,"internalType":"address","name":"previousOwner","type":"address"},{"indexed":true,"internalType":"address","name":"newOwner","type":"address"}],"name":"OwnershipTransferred","type":"event"},{"anonymous":false,"inputs":[{"indexed":true,"internalType":"address","name":"updater","type":"address"}],"name":"UpdaterSet","type":"event"},{"inputs":[],"name":"decimals","outputs":[{"internalType":"uint8","name":"","type":"uint8"}],"stateMutability":"view","type":"function"},{"inputs":[],"name":"description","outputs":[{"internalType":"string","name":"","type":"string"}],"stateMutability":"view","type":"function"},{"inputs":[{"internalType":"uint80","name":"requestedRoundId","type":"uint80"}],"name":"getRoundData","outputs":[{"internalType":"uint80","name":"roundId","type":"uint80"},{"internalType":"int256","name":"answer","type":"int256"},{"internalType":"uint256","name":"startedAt","type":"uint256"},{"internalType":"uint256","name":"updatedAt","type":"uint256"},{"internalType":"uint80","name":"answeredInRound","type":"uint80"}],"stateMutability":"view","type":"function"},{"inputs":[],"name":"latestRoundData","outputs":[{"internalType":"uint80","name":"roundId","type":"uint80"},{"internalType":"int256","name":"answer","type":"int256"},{"internalType":"uint256","name":"startedAt","type":"uint256"},{"internalType":"uint256","name":"updatedAt","type":"uint256"},{"internalType":"uint80","name":"answeredInRound","type":"uint80"}],"stateMutability":"view","type":"function"},{"inputs":[],"name":"owner","outputs":[{"internalType":"address","name":"","type":"address"}],"stateMutability":"view","type":"function"},{"inputs":[],"name":"renounceOwnership","outputs":[],"stateMutability":"nonpayable","type":"function"},{"inputs":[{"internalType":"address","name":"newUpdater","type":"address"}],"name":"setUpdater","outputs":[],"stateMutability":"nonpayable","type":"function"},{"inputs":[{"internalType":"address","name":"newOwner","type":"address"}],"name":"transferOwnership","outputs":[],"stateMutability":"nonpayable","type":"function"},{"inputs":[{"internalType":"int256","name":"newAnswer","type":"int256"}],"name":"updateAnswer","outputs":[],"stateMutability":"nonpayable","type":"function"},{"inputs":[],"name":"updater","outputs":[{"internalType":"address","name":"","type":"address"}],"stateMutability":"view","type":"function"},{"inputs":[],"name":"version","outputs":[{"internalType":"uint256","name":"","type":"uint256"}],"stateMutability":"view","type":"function"}],"evm":{"bytecode":{"linkReferences":{},"object":"60806040523461038957610a35803803806100198161038d565b9283398101906040818303126103895780516001600160401b0381116103895781019082601f830112156103895781516001600160401b0381116103205761006a601f8201601f191660200161038d565b9381855260208285010111610389576020815f92828096018388015e8501015201513315610376575f8054336001600160a01b03198216811783556040519290916001600160a01b0316907f8be0079c531659141344cd1fd0a4f28419497f9722a3daafe3b4186f6b6457e09080a360016002555f821315610334575081516001600160401b03811161032057600154600181811c91168015610316575b602082101461030257601f811161029f575b50602092601f821160011461023e57928192935f92610233575b50508160011b915f199060031b1c1916176001555b6003549060405191337f5a39b8d3fd7361f3c5173afba233b7f1530567d03f9dfb0a2ca414960f08541d5f80a26001600160501b03336001600160a01b031983161760a01c811690811461021f576001600160f01b031990911633600160a01b600160f01b03191617600190910160a090811b600160a01b600160f01b031691909117600381905560048390554260058190558452901c6001600160501b0316917f0559884fd3a460db3073b7fc896cc77986f16e378210ded43186175bf646fc5f90602090a360405161068290816103b38239f35b634e487b7160e01b5f52601160045260245ffd5b015190505f80610134565b601f1982169360015f52805f20915f5b868110610287575083600195961061026f575b505050811b01600155610149565b01515f1960f88460031b161c191690555f8080610261565b9192602060018192868501518155019401920161024e565b60015f527fb10e2d527612073b26eecdfd717e6a320cf44b4afac2b0732d9fcbe2b7fa0cf6601f830160051c810191602084106102f8575b601f0160051c01905b8181106102ed575061011a565b5f81556001016102e0565b90915081906102d7565b634e487b7160e01b5f52602260045260245ffd5b90607f1690610108565b634e487b7160e01b5f52604160045260245ffd5b62461bcd60e51b815260206004820152601660248201527f496e76616c696420696e697469616c20616e73776572000000000000000000006044820152606490fd5b631e4fbdf760e01b5f525f60045260245ffd5b5f80fd5b6040519190601f01601f191682016001600160401b038111838210176103205760405256fe6080806040526004361015610012575f80fd5b5f3560e01c908163313ce5671461060d5750806354fd4d50146105f0578063715018a6146105995780637284e416146104605780638da5cb5b146104395780639a6fc8f51461038e5780639d54f419146102eb578063a87a20ce14610198578063df034cd014610170578063f2fde38b146100e75763feaf968c14610095575f80fd5b346100e3575f3660031901126100e357600354600454600554604080516001600160501b0360a095861c16808252602082019490945290810182905260608101919091526080810191909152f35b5f80fd5b346100e35760203660031901126100e3576004356001600160a01b038116908190036100e357610115610626565b801561015d575f80546001600160a01b03198116831782556001600160a01b0316907f8be0079c531659141344cd1fd0a4f28419497f9722a3daafe3b4186f6b6457e09080a3005b631e4fbdf760e01b5f525f60045260245ffd5b346100e3575f3660031901126100e3576003546040516001600160a01b039091168152602090f35b346100e35760203660031901126100e35760043560018060a01b035f5416331480156102d7575b1561029d575f811315610267576003546001600160501b038160a01c166001600160501b0381146102535760016001600160501b0360a01b910160a01b16906001600160501b0360a01b191617908160035580600455426005557f0559884fd3a460db3073b7fc896cc77986f16e378210ded43186175bf646fc5f60206001600160501b036040519442865260a01c1693a3005b634e487b7160e01b5f52601160045260245ffd5b60405162461bcd60e51b815260206004820152600e60248201526d24b73b30b634b21030b739bbb2b960911b6044820152606490fd5b60405162461bcd60e51b81526020600482015260126024820152712737ba1037b930b1b632903ab83230ba32b960711b6044820152606490fd5b506003546001600160a01b031633146101bf565b346100e35760203660031901126100e3576004356001600160a01b038116908190036100e357610319610626565b801561035757600380546001600160a01b031916821790557f5a39b8d3fd7361f3c5173afba233b7f1530567d03f9dfb0a2ca414960f08541d5f80a2005b60405162461bcd60e51b815260206004820152600f60248201526e24b73b30b634b2103ab83230ba32b960891b6044820152606490fd5b346100e35760203660031901126100e3576004356001600160501b0381168091036100e3576001600160501b0360035460a01c168091036103fe57600454600554604080516001600160501b0394909416808552602085019390935283018190526060830152608082015260a090f35b60405162461bcd60e51b8152602060048201526013602482015272526f756e64206e6f7420617661696c61626c6560681b6044820152606490fd5b346100e3575f3660031901126100e3575f546040516001600160a01b039091168152602090f35b346100e3575f3660031901126100e3576040515f600154908160011c6001831692831561058f575b60208210841461057b578185526020850193908115610562575060011461050d575b50829003601f01601f191682019167ffffffffffffffff8311818410176104f9576040918391828452602083525180918160208501528484015e5f828201840152601f01601f19168101030190f35b634e487b7160e01b5f52604160045260245ffd5b905060015f527fb10e2d527612073b26eecdfd717e6a320cf44b4afac2b0732d9fcbe2b7fa0cf65f905b82821061054c575060209150830101836104aa565b6001816020925483858901015201910190610537565b60ff1916845250151560051b83016020019050836104aa565b634e487b7160e01b5f52602260045260245ffd5b90607f1690610488565b346100e3575f3660031901126100e3576105b1610626565b5f80546001600160a01b0319811682556001600160a01b03167f8be0079c531659141344cd1fd0a4f28419497f9722a3daafe3b4186f6b6457e08280a3005b346100e3575f3660031901126100e3576020600254604051908152f35b346100e3575f3660031901126100e35780600860209252f35b5f546001600160a01b0316330361063957565b63118cdaa760e01b5f523360045260245ffdfea2646970667358221220b54b13dbfec04f416e598b1f93e5b86ed2c63ad815081099a93db5a9ece347bb64736f6c634300081c0033","opcodes":"PUSH1 0x80 PUSH1 0x40 MSTORE CALLVALUE PUSH2 0x389 JUMPI PUSH2 0xA35 DUP1 CODESIZE SUB DUP1 PUSH2 0x19 DUP2 PUSH2 0x38D JUMP JUMPDEST SWAP3 DUP4 CODECOPY DUP2 ADD SWAP1 PUSH1 0x40 DUP2 DUP4 SUB SLT PUSH2 0x389 JUMPI DUP1 MLOAD PUSH1 0x1 PUSH1 0x1 PUSH1 0x40 SHL SUB DUP2 GT PUSH2 0x389 JUMPI DUP2 ADD SWAP1 DUP3 PUSH1 0x1F DUP4 ADD SLT ISZERO PUSH2 0x389 JUMPI DUP2 MLOAD PUSH1 0x1 PUSH1 0x1 PUSH1 0x40 SHL SUB DUP2 GT PUSH2 0x320 JUMPI PUSH2 0x6A PUSH1 0x1F DUP3 ADD PUSH1 0x1F NOT AND PUSH1 0x20 ADD PUSH2 0x38D JUMP JUMPDEST SWAP4 DUP2 DUP6 MSTORE PUSH1 0x20 DUP3 DUP6 ADD ADD GT PUSH2 0x389 JUMPI PUSH1 0x20 DUP2 PUSH0 SWAP3 DUP3 DUP1 SWAP7 ADD DUP4 DUP9 ADD MCOPY DUP6 ADD ADD MSTORE ADD MLOAD CALLER ISZERO PUSH2 0x376 JUMPI PUSH0 DUP1 SLOAD CALLER PUSH1 0x1 PUSH1 0x1 PUSH1 0xA0 SHL SUB NOT DUP3 AND DUP2 OR DUP4 SSTORE PUSH1 0x40 MLOAD SWAP3 SWAP1 SWAP2 PUSH1 0x1 PUSH1 0x1 PUSH1 0xA0 SHL SUB AND SWAP1 PUSH32 0x8BE0079C531659141344CD1FD0A4F28419497F9722A3DAAFE3B4186F6B6457E0 SWAP1 DUP1 LOG3 PUSH1 0x1 PUSH1 0x2 SSTORE PUSH0 DUP3 SGT ISZERO PUSH2 0x334 JUMPI POP DUP2 MLOAD PUSH1 0x1 PUSH1 0x1 PUSH1 0x40 SHL SUB DUP2 GT PUSH2 0x320 JUMPI PUSH1 0x1 SLOAD PUSH1 0x1 DUP2 DUP2 SHR SWAP2 AND DUP1 ISZERO PUSH2 0x316 JUMPI JUMPDEST PUSH1 0x20 DUP3 LT EQ PUSH2 0x302 JUMPI PUSH1 0x1F DUP2 GT PUSH2 0x29F JUMPI JUMPDEST POP PUSH1 0x20 SWAP3 PUSH1 0x1F DUP3 GT PUSH1 0x1 EQ PUSH2 0x23E JUMPI SWAP3 DUP2 SWAP3 SWAP4 PUSH0 SWAP3 PUSH2 0x233 JUMPI JUMPDEST POP POP DUP2 PUSH1 0x1 SHL SWAP2 PUSH0 NOT SWAP1 PUSH1 0x3 SHL SHR NOT AND OR PUSH1 0x1 SSTORE JUMPDEST PUSH1 0x3 SLOAD SWAP1 PUSH1 0x40 MLOAD SWAP2 CALLER PUSH32 0x5A39B8D3FD7361F3C5173AFBA233B7F1530567D03F9DFB0A2CA414960F08541D PUSH0 DUP1 LOG2 PUSH1 0x1 PUSH1 0x1 PUSH1 0x50 SHL SUB CALLER PUSH1 0x1 PUSH1 0x1 PUSH1 0xA0 SHL SUB NOT DUP4 AND OR PUSH1 0xA0 SHR DUP2 AND SWAP1 DUP2 EQ PUSH2 0x21F JUMPI PUSH1 0x1 PUSH1 0x1 PUSH1 0xF0 SHL SUB NOT SWAP1 SWAP2 AND CALLER PUSH1 0x1 PUSH1 0xA0 SHL PUSH1 0x1 PUSH1 0xF0 SHL SUB NOT AND OR PUSH1 0x1 SWAP1 SWAP2 ADD PUSH1 0xA0 SWAP1 DUP2 SHL PUSH1 0x1 PUSH1 0xA0 SHL PUSH1 0x1 PUSH1 0xF0 SHL SUB AND SWAP2 SWAP1 SWAP2 OR PUSH1 0x3 DUP2 SWAP1 SSTORE PUSH1 0x4 DUP4 SWAP1 SSTORE TIMESTAMP PUSH1 0x5 DUP2 SWAP1 SSTORE DUP5 MSTORE SWAP1 SHR PUSH1 0x1 PUSH1 0x1 PUSH1 0x50 SHL SUB AND SWAP2 PUSH32 0x559884FD3A460DB3073B7FC896CC77986F16E378210DED43186175BF646FC5F SWAP1 PUSH1 0x20 SWAP1 LOG3 PUSH1 0x40 MLOAD PUSH2 0x682 SWAP1 DUP2 PUSH2 0x3B3 DUP3 CODECOPY RETURN JUMPDEST PUSH4 0x4E487B71 PUSH1 0xE0 SHL PUSH0 MSTORE PUSH1 0x11 PUSH1 0x4 MSTORE PUSH1 0x24 PUSH0 REVERT JUMPDEST ADD MLOAD SWAP1 POP PUSH0 DUP1 PUSH2 0x134 JUMP JUMPDEST PUSH1 0x1F NOT DUP3 AND SWAP4 PUSH1 0x1 PUSH0 MSTORE DUP1 PUSH0 KECCAK256 SWAP2 PUSH0 JUMPDEST DUP7 DUP2 LT PUSH2 0x287 JUMPI POP DUP4 PUSH1 0x1 SWAP6 SWAP7 LT PUSH2 0x26F JUMPI JUMPDEST POP POP POP DUP2 SHL ADD PUSH1 0x1 SSTORE PUSH2 0x149 JUMP JUMPDEST ADD MLOAD PUSH0 NOT PUSH1 0xF8 DUP5 PUSH1 0x3 SHL AND SHR NOT AND SWAP1 SSTORE PUSH0 DUP1 DUP1 PUSH2 0x261 JUMP JUMPDEST SWAP2 SWAP3 PUSH1 0x20 PUSH1 0x1 DUP2 SWAP3 DUP7 DUP6 ADD MLOAD DUP2 SSTORE ADD SWAP5 ADD SWAP3 ADD PUSH2 0x24E JUMP JUMPDEST PUSH1 0x1 PUSH0 MSTORE PUSH32 0xB10E2D527612073B26EECDFD717E6A320CF44B4AFAC2B0732D9FCBE2B7FA0CF6 PUSH1 0x1F DUP4 ADD PUSH1 0x5 SHR DUP2 ADD SWAP2 PUSH1 0x20 DUP5 LT PUSH2 0x2F8 JUMPI JUMPDEST PUSH1 0x1F ADD PUSH1 0x5 SHR ADD SWAP1 JUMPDEST DUP2 DUP2 LT PUSH2 0x2ED JUMPI POP PUSH2 0x11A JUMP JUMPDEST PUSH0 DUP2 SSTORE PUSH1 0x1 ADD PUSH2 0x2E0 JUMP JUMPDEST SWAP1 SWAP2 POP DUP2 SWAP1 PUSH2 0x2D7 JUMP JUMPDEST PUSH4 0x4E487B71 PUSH1 0xE0 SHL PUSH0 MSTORE PUSH1 0x22 PUSH1 0x4 MSTORE PUSH1 0x24 PUSH0 REVERT JUMPDEST SWAP1 PUSH1 0x7F AND SWAP1 PUSH2 0x108 JUMP JUMPDEST PUSH4 0x4E487B71 PUSH1 0xE0 SHL PUSH0 MSTORE PUSH1 0x41 PUSH1 0x4 MSTORE PUSH1 0x24 PUSH0 REVERT JUMPDEST PUSH3 0x461BCD PUSH1 0xE5 SHL DUP2 MSTORE PUSH1 0x20 PUSH1 0x4 DUP3 ADD MSTORE PUSH1 0x16 PUSH1 0x24 DUP3 ADD MSTORE PUSH32 0x496E76616C696420696E697469616C20616E7377657200000000000000000000 PUSH1 0x44 DUP3 ADD MSTORE PUSH1 0x64 SWAP1 REVERT JUMPDEST PUSH4 0x1E4FBDF7 PUSH1 0xE0 SHL PUSH0 MSTORE PUSH0 PUSH1 0x4 MSTORE PUSH1 0x24 PUSH0 REVERT JUMPDEST PUSH0 DUP1 REVERT JUMPDEST PUSH1 0x40 MLOAD SWAP2 SWAP1 PUSH1 0x1F ADD PUSH1 0x1F NOT AND DUP3 ADD PUSH1 0x1 PUSH1 0x1 PUSH1 0x40 SHL SUB DUP2 GT DUP4 DUP3 LT OR PUSH2 0x320 JUMPI PUSH1 0x40 MSTORE JUMP INVALID PUSH1 0x80 DUP1 PUSH1 0x40 MSTORE PUSH1 0x4 CALLDATASIZE LT ISZERO PUSH2 0x12 JUMPI PUSH0 DUP1 REVERT JUMPDEST PUSH0 CALLDATALOAD PUSH1 0xE0 SHR SWAP1 DUP2 PUSH4 0x313CE567 EQ PUSH2 0x60D JUMPI POP DUP1 PUSH4 0x54FD4D50 EQ PUSH2 0x5F0 JUMPI DUP1 PUSH4 0x715018A6 EQ PUSH2 0x599 JUMPI DUP1 PUSH4 0x7284E416 EQ PUSH2 0x460 JUMPI DUP1 PUSH4 0x8DA5CB5B EQ PUSH2 0x439 JUMPI DUP1 PUSH4 0x9A6FC8F5 EQ PUSH2 0x38E JUMPI DUP1 PUSH4 0x9D54F419 EQ PUSH2 0x2EB JUMPI DUP1 PUSH4 0xA87A20CE EQ PUSH2 0x198 JUMPI DUP1 PUSH4 0xDF034CD0 EQ PUSH2 0x170 JUMPI DUP1 PUSH4 0xF2FDE38B EQ PUSH2 0xE7 JUMPI PUSH4 0xFEAF968C EQ PUSH2 0x95 JUMPI PUSH0 DUP1 REVERT JUMPDEST CALLVALUE PUSH2 0xE3 JUMPI PUSH0 CALLDATASIZE PUSH1 0x3 NOT ADD SLT PUSH2 0xE3 JUMPI PUSH1 0x3 SLOAD PUSH1 0x4 SLOAD PUSH1 0x5 SLOAD PUSH1 0x40 DUP1 MLOAD PUSH1 0x1 PUSH1 0x1 PUSH1 0x50 SHL SUB PUSH1 0xA0 SWAP6 DUP7 SHR AND DUP1 DUP3 MSTORE PUSH1 0x20 DUP3 ADD SWAP5 SWAP1 SWAP5 MSTORE SWAP1 DUP2 ADD DUP3 SWAP1 MSTORE PUSH1 0x60 DUP2 ADD SWAP2 SWAP1 SWAP2 MSTORE PUSH1 0x80 DUP2 ADD SWAP2 SWAP1 SWAP2 MSTORE RETURN JUMPDEST PUSH0 DUP1 REVERT JUMPDEST CALLVALUE PUSH2 0xE3 JUMPI PUSH1 0x20 CALLDATASIZE PUSH1 0x3 NOT ADD SLT PUSH2 0xE3 JUMPI PUSH1 0x4 CALLDATALOAD PUSH1 0x1 PUSH1 0x1 PUSH1 0xA0 SHL SUB DUP2 AND SWAP1 DUP2 SWAP1 SUB PUSH2 0xE3 JUMPI PUSH2 0x115 PUSH2 0x626 JUMP JUMPDEST DUP1 ISZERO PUSH2 0x15D JUMPI PUSH0 DUP1 SLOAD PUSH1 0x1 PUSH1 0x1 PUSH1 0xA0 SHL SUB NOT DUP2 AND DUP4 OR DUP3 SSTORE PUSH1 0x1 PUSH1 0x1 PUSH1 0xA0 SHL SUB AND SWAP1 PUSH32 0x8BE0079C531659141344CD1FD0A4F28419497F9722A3DAAFE3B4186F6B6457E0 SWAP1 DUP1 LOG3 STOP JUMPDEST PUSH4 0x1E4FBDF7 PUSH1 0xE0 SHL PUSH0 MSTORE PUSH0 PUSH1 0x4 MSTORE PUSH1 0x24 PUSH0 REVERT JUMPDEST CALLVALUE PUSH2 0xE3 JUMPI PUSH0 CALLDATASIZE PUSH1 0x3 NOT ADD SLT PUSH2 0xE3 JUMPI PUSH1 0x3 SLOAD PUSH1 0x40 MLOAD PUSH1 0x1 PUSH1 0x1 PUSH1 0xA0 SHL SUB SWAP1 SWAP2 AND DUP2 MSTORE PUSH1 0x20 SWAP1 RETURN JUMPDEST CALLVALUE PUSH2 0xE3 JUMPI PUSH1 0x20 CALLDATASIZE PUSH1 0x3 NOT ADD SLT PUSH2 0xE3 JUMPI PUSH1 0x4 CALLDATALOAD PUSH1 0x1 DUP1 PUSH1 0xA0 SHL SUB PUSH0 SLOAD AND CALLER EQ DUP1 ISZERO PUSH2 0x2D7 JUMPI JUMPDEST ISZERO PUSH2 0x29D JUMPI PUSH0 DUP2 SGT ISZERO PUSH2 0x267 JUMPI PUSH1 0x3 SLOAD PUSH1 0x1 PUSH1 0x1 PUSH1 0x50 SHL SUB DUP2 PUSH1 0xA0 SHR AND PUSH1 0x1 PUSH1 0x1 PUSH1 0x50 SHL SUB DUP2 EQ PUSH2 0x253 JUMPI PUSH1 0x1 PUSH1 0x1 PUSH1 0x1 PUSH1 0x50 SHL SUB PUSH1 0xA0 SHL SWAP2 ADD PUSH1 0xA0 SHL AND SWAP1 PUSH1 0x1 PUSH1 0x1 PUSH1 0x50 SHL SUB PUSH1 0xA0 SHL NOT AND OR SWAP1 DUP2 PUSH1 0x3 SSTORE DUP1 PUSH1 0x4 SSTORE TIMESTAMP PUSH1 0x5 SSTORE PUSH32 0x559884FD3A460DB3073B7FC896CC77986F16E378210DED43186175BF646FC5F PUSH1 0x20 PUSH1 0x1 PUSH1 0x1 PUSH1 0x50 SHL SUB PUSH1 0x40 MLOAD SWAP5 TIMESTAMP DUP7 MSTORE PUSH1 0xA0 SHR AND SWAP4 LOG3 STOP JUMPDEST PUSH4 0x4E487B71 PUSH1 0xE0 SHL PUSH0 MSTORE PUSH1 0x11 PUSH1 0x4 MSTORE PUSH1 0x24 PUSH0 REVERT JUMPDEST PUSH1 0x40 MLOAD PUSH3 0x461BCD PUSH1 0xE5 SHL DUP2 MSTORE PUSH1 0x20 PUSH1 0x4 DUP3 ADD MSTORE PUSH1 0xE PUSH1 0x24 DUP3 ADD MSTORE PUSH14 0x24B73B30B634B21030B739BBB2B9 PUSH1 0x91 SHL PUSH1 0x44 DUP3 ADD MSTORE PUSH1 0x64 SWAP1 REVERT JUMPDEST PUSH1 0x40 MLOAD PUSH3 0x461BCD PUSH1 0xE5 SHL DUP2 MSTORE PUSH1 0x20 PUSH1 0x4 DUP3 ADD MSTORE PUSH1 0x12 PUSH1 0x24 DUP3 ADD MSTORE PUSH18 0x2737BA1037B930B1B632903AB83230BA32B9 PUSH1 0x71 SHL PUSH1 0x44 DUP3 ADD MSTORE PUSH1 0x64 SWAP1 REVERT JUMPDEST POP PUSH1 0x3 SLOAD PUSH1 0x1 PUSH1 0x1 PUSH1 0xA0 SHL SUB AND CALLER EQ PUSH2 0x1BF JUMP JUMPDEST CALLVALUE PUSH2 0xE3 JUMPI PUSH1 0x20 CALLDATASIZE PUSH1 0x3 NOT ADD SLT PUSH2 0xE3 JUMPI PUSH1 0x4 CALLDATALOAD PUSH1 0x1 PUSH1 0x1 PUSH1 0xA0 SHL SUB DUP2 AND SWAP1 DUP2 SWAP1 SUB PUSH2 0xE3 JUMPI PUSH2 0x319 PUSH2 0x626 JUMP JUMPDEST DUP1 ISZERO PUSH2 0x357 JUMPI PUSH1 0x3 DUP1 SLOAD PUSH1 0x1 PUSH1 0x1 PUSH1 0xA0 SHL SUB NOT AND DUP3 OR SWAP1 SSTORE PUSH32 0x5A39B8D3FD7361F3C5173AFBA233B7F1530567D03F9DFB0A2CA414960F08541D PUSH0 DUP1 LOG2 STOP JUMPDEST PUSH1 0x40 MLOAD PUSH3 0x461BCD PUSH1 0xE5 SHL DUP2 MSTORE PUSH1 0x20 PUSH1 0x4 DUP3 ADD MSTORE PUSH1 0xF PUSH1 0x24 DUP3 ADD MSTORE PUSH15 0x24B73B30B634B2103AB83230BA32B9 PUSH1 0x89 SHL PUSH1 0x44 DUP3 ADD MSTORE PUSH1 0x64 SWAP1 REVERT JUMPDEST CALLVALUE PUSH2 0xE3 JUMPI PUSH1 0x20 CALLDATASIZE PUSH1 0x3 NOT ADD SLT PUSH2 0xE3 JUMPI PUSH1 0x4 CALLDATALOAD PUSH1 0x1 PUSH1 0x1 PUSH1 0x50 SHL SUB DUP2 AND DUP1 SWAP2 SUB PUSH2 0xE3 JUMPI PUSH1 0x1 PUSH1 0x1 PUSH1 0x50 SHL SUB PUSH1 0x3 SLOAD PUSH1 0xA0 SHR AND DUP1 SWAP2 SUB PUSH2 0x3FE JUMPI PUSH1 0x4 SLOAD PUSH1 0x5 SLOAD PUSH1 0x40 DUP1 MLOAD PUSH1 0x1 PUSH1 0x1 PUSH1 0x50 SHL SUB SWAP5 SWAP1 SWAP5 AND DUP1 DUP6 MSTORE PUSH1 0x20 DUP6 ADD SWAP4 SWAP1 SWAP4 MSTORE DUP4 ADD DUP2 SWAP1 MSTORE PUSH1 0x60 DUP4 ADD MSTORE PUSH1 0x80 DUP3 ADD MSTORE PUSH1 0xA0 SWAP1 RETURN JUMPDEST PUSH1 0x40 MLOAD PUSH3 0x461BCD PUSH1 0xE5 SHL DUP2 MSTORE PUSH1 0x20 PUSH1 0x4 DUP3 ADD MSTORE PUSH1 0x13 PUSH1 0x24 DUP3 ADD MSTORE PUSH19 0x526F756E64206E6F7420617661696C61626C65 PUSH1 0x68 SHL PUSH1 0x44 DUP3 ADD MSTORE PUSH1 0x64 SWAP1 REVERT JUMPDEST CALLVALUE PUSH2 0xE3 JUMPI PUSH0 CALLDATASIZE PUSH1 0x3 NOT ADD SLT PUSH2 0xE3 JUMPI PUSH0 SLOAD PUSH1 0x40 MLOAD PUSH1 0x1 PUSH1 0x1 PUSH1 0xA0 SHL SUB SWAP1 SWAP2 AND DUP2 MSTORE PUSH1 0x20 SWAP1 RETURN JUMPDEST CALLVALUE PUSH2 0xE3 JUMPI PUSH0 CALLDATASIZE PUSH1 0x3 NOT ADD SLT PUSH2 0xE3 JUMPI PUSH1 0x40 MLOAD PUSH0 PUSH1 0x1 SLOAD SWAP1 DUP2 PUSH1 0x1 SHR PUSH1 0x1 DUP4 AND SWAP3 DUP4 ISZERO PUSH2 0x58F JUMPI JUMPDEST PUSH1 0x20 DUP3 LT DUP5 EQ PUSH2 0x57B JUMPI DUP2 DUP6 MSTORE PUSH1 0x20 DUP6 ADD SWAP4 SWAP1 DUP2 ISZERO PUSH2 0x562 JUMPI POP PUSH1 0x1 EQ PUSH2 0x50D JUMPI JUMPDEST POP DUP3 SWAP1 SUB PUSH1 0x1F ADD PUSH1 0x1F NOT AND DUP3 ADD SWAP2 PUSH8 0xFFFFFFFFFFFFFFFF DUP4 GT DUP2 DUP5 LT OR PUSH2 0x4F9 JUMPI PUSH1 0x40 SWAP2 DUP4 SWAP2 DUP3 DUP5 MSTORE PUSH1 0x20 DUP4 MSTORE MLOAD DUP1 SWAP2 DUP2 PUSH1 0x20 DUP6 ADD MSTORE DUP5 DUP5 ADD MCOPY PUSH0 DUP3 DUP3 ADD DUP5 ADD MSTORE PUSH1 0x1F ADD PUSH1 0x1F NOT AND DUP2 ADD SUB ADD SWAP1 RETURN JUMPDEST PUSH4 0x4E487B71 PUSH1 0xE0 SHL PUSH0 MSTORE PUSH1 0x41 PUSH1 0x4 MSTORE PUSH1 0x24 PUSH0 REVERT JUMPDEST SWAP1 POP PUSH1 0x1 PUSH0 MSTORE PUSH32 0xB10E2D527612073B26EECDFD717E6A320CF44B4AFAC2B0732D9FCBE2B7FA0CF6 PUSH0 SWAP1 JUMPDEST DUP3 DUP3 LT PUSH2 0x54C JUMPI POP PUSH1 0x20 SWAP2 POP DUP4 ADD ADD DUP4 PUSH2 0x4AA JUMP JUMPDEST PUSH1 0x1 DUP2 PUSH1 0x20 SWAP3 SLOAD DUP4 DUP6 DUP10 ADD ADD MSTORE ADD SWAP2 ADD SWAP1 PUSH2 0x537 JUMP JUMPDEST PUSH1 0xFF NOT AND DUP5 MSTORE POP ISZERO ISZERO PUSH1 0x5 SHL DUP4 ADD PUSH1 0x20 ADD SWAP1 POP DUP4 PUSH2 0x4AA JUMP JUMPDEST PUSH4 0x4E487B71 PUSH1 0xE0 SHL PUSH0 MSTORE PUSH1 0x22 PUSH1 0x4 MSTORE PUSH1 0x24 PUSH0 REVERT JUMPDEST SWAP1 PUSH1 0x7F AND SWAP1 PUSH2 0x488 JUMP JUMPDEST CALLVALUE PUSH2 0xE3 JUMPI PUSH0 CALLDATASIZE PUSH1 0x3 NOT ADD SLT PUSH2 0xE3 JUMPI PUSH2 0x5B1 PUSH2 0x626 JUMP JUMPDEST PUSH0 DUP1 SLOAD PUSH1 0x1 PUSH1 0x1 PUSH1 0xA0 SHL SUB NOT DUP2 AND DUP3 SSTORE PUSH1 0x1 PUSH1 0x1 PUSH1 0xA0 SHL SUB AND PUSH32 0x8BE0079C531659141344CD1FD0A4F28419497F9722A3DAAFE3B4186F6B6457E0 DUP3 DUP1 LOG3 STOP JUMPDEST CALLVALUE PUSH2 0xE3 JUMPI PUSH0 CALLDATASIZE PUSH1 0x3 NOT ADD SLT PUSH2 0xE3 JUMPI PUSH1 0x20 PUSH1 0x2 SLOAD PUSH1 0x40 MLOAD SWAP1 DUP2 MSTORE RETURN JUMPDEST CALLVALUE PUSH2 0xE3 JUMPI PUSH0 CALLDATASIZE PUSH1 0x3 NOT ADD SLT PUSH2 0xE3 JUMPI DUP1 PUSH1 0x8 PUSH1 0x20 SWAP3 MSTORE RETURN JUMPDEST PUSH0 SLOAD PUSH1 0x1 PUSH1 0x1 PUSH1 0xA0 SHL SUB AND CALLER SUB PUSH2 0x639 JUMPI JUMP JUMPDEST PUSH4 0x118CDAA7 PUSH1 0xE0 SHL PUSH0 MSTORE CALLER PUSH1 0x4 MSTORE PUSH1 0x24 PUSH0 REVERT INVALID LOG2 PUSH5 0x6970667358 0x22 SLT KECCAK256 0xB5 0x4B SGT 0xDB INVALID 0xC0 0x4F COINBASE PUSH15 0x598B1F93E5B86ED2C63AD815081099 0xA9 RETURNDATASIZE 0xB5 0xA9 0xEC 0xE3 SELFBALANCE 0xBB PUSH5 0x736F6C6343 STOP ADDMOD SHR STOP CALLER "},"methodIdentifiers":{"decimals()":"313ce567","description()":"7284e416","getRoundData(uint80)":"9a6fc8f5","latestRoundData()":"feaf968c","owner()":"8da5cb5b","renounceOwnership()":"715018a6","setUpdater(address)":"9d54f419","transferOwnership(address)":"f2fde38b","updateAnswer(int256)":"a87a20ce","updater()":"df034cd0","version()":"54fd4d50"}}}}}