{
  "_format": "hh-sol-artifact-1",
  "contractName": "FastPriceOracle",
  "sourceName": "contracts/FastPriceOracle.sol",
  "abi": [
    {
      "inputs": [
        {
          "internalType": "string",
          "name": "_description",
          "type": "string"
        },
        {
          "internalType": "int256",
          "name": "initialAnswer",
          "type": "int256"
        }
      ],
      "stateMutability": "nonpayable",
      "type": "constructor"
    },
    {
      "inputs": [
        {
          "internalType": "address",
          "name": "owner",
          "type": "address"
        }
      ],
      "name": "OwnableInvalidOwner",
      "type": "error"
    },
    {
      "inputs": [
        {
          "internalType": "address",
          "name": "account",
          "type": "address"
        }
      ],
      "name": "OwnableUnauthorizedAccount",
      "type": "error"
    },
    {
      "anonymous": false,
      "inputs": [
        {
          "indexed": true,
          "internalType": "int256",
          "name": "current",
          "type": "int256"
        },
        {
          "indexed": true,
          "internalType": "uint256",
          "name": "roundId",
          "type": "uint256"
        },
        {
          "indexed": false,
          "internalType": "uint256",
          "name": "updatedAt",
          "type": "uint256"
        }
      ],
      "name": "AnswerUpdated",
      "type": "event"
    },
    {
      "anonymous": false,
      "inputs": [
        {
          "indexed": true,
          "internalType": "address",
          "name": "previousOwner",
          "type": "address"
        },
        {
          "indexed": true,
          "internalType": "address",
          "name": "newOwner",
          "type": "address"
        }
      ],
      "name": "OwnershipTransferred",
      "type": "event"
    },
    {
      "anonymous": false,
      "inputs": [
        {
          "indexed": true,
          "internalType": "address",
          "name": "updater",
          "type": "address"
        }
      ],
      "name": "UpdaterSet",
      "type": "event"
    },
    {
      "inputs": [],
      "name": "decimals",
      "outputs": [
        {
          "internalType": "uint8",
          "name": "",
          "type": "uint8"
        }
      ],
      "stateMutability": "view",
      "type": "function"
    },
    {
      "inputs": [],
      "name": "description",
      "outputs": [
        {
          "internalType": "string",
          "name": "",
          "type": "string"
        }
      ],
      "stateMutability": "view",
      "type": "function"
    },
    {
      "inputs": [
        {
          "internalType": "uint80",
          "name": "requestedRoundId",
          "type": "uint80"
        }
      ],
      "name": "getRoundData",
      "outputs": [
        {
          "internalType": "uint80",
          "name": "roundId",
          "type": "uint80"
        },
        {
          "internalType": "int256",
          "name": "answer",
          "type": "int256"
        },
        {
          "internalType": "uint256",
          "name": "startedAt",
          "type": "uint256"
        },
        {
          "internalType": "uint256",
          "name": "updatedAt",
          "type": "uint256"
        },
        {
          "internalType": "uint80",
          "name": "answeredInRound",
          "type": "uint80"
        }
      ],
      "stateMutability": "view",
      "type": "function"
    },
    {
      "inputs": [],
      "name": "latestRoundData",
      "outputs": [
        {
          "internalType": "uint80",
          "name": "roundId",
          "type": "uint80"
        },
        {
          "internalType": "int256",
          "name": "answer",
          "type": "int256"
        },
        {
          "internalType": "uint256",
          "name": "startedAt",
          "type": "uint256"
        },
        {
          "internalType": "uint256",
          "name": "updatedAt",
          "type": "uint256"
        },
        {
          "internalType": "uint80",
          "name": "answeredInRound",
          "type": "uint80"
        }
      ],
      "stateMutability": "view",
      "type": "function"
    },
    {
      "inputs": [],
      "name": "owner",
      "outputs": [
        {
          "internalType": "address",
          "name": "",
          "type": "address"
        }
      ],
      "stateMutability": "view",
      "type": "function"
    },
    {
      "inputs": [],
      "name": "renounceOwnership",
      "outputs": [],
      "stateMutability": "nonpayable",
      "type": "function"
    },
    {
      "inputs": [
        {
          "internalType": "address",
          "name": "newUpdater",
          "type": "address"
        }
      ],
      "name": "setUpdater",
      "outputs": [],
      "stateMutability": "nonpayable",
      "type": "function"
    },
    {
      "inputs": [
        {
          "internalType": "address",
          "name": "newOwner",
          "type": "address"
        }
      ],
      "name": "transferOwnership",
      "outputs": [],
      "stateMutability": "nonpayable",
      "type": "function"
    },
    {
      "inputs": [
        {
          "internalType": "int256",
          "name": "newAnswer",
          "type": "int256"
        }
      ],
      "name": "updateAnswer",
      "outputs": [],
      "stateMutability": "nonpayable",
      "type": "function"
    },
    {
      "inputs": [],
      "name": "updater",
      "outputs": [
        {
          "internalType": "address",
          "name": "",
          "type": "address"
        }
      ],
      "stateMutability": "view",
      "type": "function"
    },
    {
      "inputs": [],
      "name": "version",
      "outputs": [
        {
          "internalType": "uint256",
          "name": "",
          "type": "uint256"
        }
      ],
      "stateMutability": "view",
      "type": "function"
    }
  ],
  "bytecode": "0x60806040523461038957610a35803803806100198161038d565b9283398101906040818303126103895780516001600160401b0381116103895781019082601f830112156103895781516001600160401b0381116103205761006a601f8201601f191660200161038d565b9381855260208285010111610389576020815f92828096018388015e8501015201513315610376575f8054336001600160a01b03198216811783556040519290916001600160a01b0316907f8be0079c531659141344cd1fd0a4f28419497f9722a3daafe3b4186f6b6457e09080a360016002555f821315610334575081516001600160401b03811161032057600154600181811c91168015610316575b602082101461030257601f811161029f575b50602092601f821160011461023e57928192935f92610233575b50508160011b915f199060031b1c1916176001555b6003549060405191337f5a39b8d3fd7361f3c5173afba233b7f1530567d03f9dfb0a2ca414960f08541d5f80a26001600160501b03336001600160a01b031983161760a01c811690811461021f576001600160f01b031990911633600160a01b600160f01b03191617600190910160a090811b600160a01b600160f01b031691909117600381905560048390554260058190558452901c6001600160501b0316917f0559884fd3a460db3073b7fc896cc77986f16e378210ded43186175bf646fc5f90602090a360405161068290816103b38239f35b634e487b7160e01b5f52601160045260245ffd5b015190505f80610134565b601f1982169360015f52805f20915f5b868110610287575083600195961061026f575b505050811b01600155610149565b01515f1960f88460031b161c191690555f8080610261565b9192602060018192868501518155019401920161024e565b60015f527fb10e2d527612073b26eecdfd717e6a320cf44b4afac2b0732d9fcbe2b7fa0cf6601f830160051c810191602084106102f8575b601f0160051c01905b8181106102ed575061011a565b5f81556001016102e0565b90915081906102d7565b634e487b7160e01b5f52602260045260245ffd5b90607f1690610108565b634e487b7160e01b5f52604160045260245ffd5b62461bcd60e51b815260206004820152601660248201527f496e76616c696420696e697469616c20616e73776572000000000000000000006044820152606490fd5b631e4fbdf760e01b5f525f60045260245ffd5b5f80fd5b6040519190601f01601f191682016001600160401b038111838210176103205760405256fe6080806040526004361015610012575f80fd5b5f3560e01c908163313ce5671461060d5750806354fd4d50146105f0578063715018a6146105995780637284e416146104605780638da5cb5b146104395780639a6fc8f51461038e5780639d54f419146102eb578063a87a20ce14610198578063df034cd014610170578063f2fde38b146100e75763feaf968c14610095575f80fd5b346100e3575f3660031901126100e357600354600454600554604080516001600160501b0360a095861c16808252602082019490945290810182905260608101919091526080810191909152f35b5f80fd5b346100e35760203660031901126100e3576004356001600160a01b038116908190036100e357610115610626565b801561015d575f80546001600160a01b03198116831782556001600160a01b0316907f8be0079c531659141344cd1fd0a4f28419497f9722a3daafe3b4186f6b6457e09080a3005b631e4fbdf760e01b5f525f60045260245ffd5b346100e3575f3660031901126100e3576003546040516001600160a01b039091168152602090f35b346100e35760203660031901126100e35760043560018060a01b035f5416331480156102d7575b1561029d575f811315610267576003546001600160501b038160a01c166001600160501b0381146102535760016001600160501b0360a01b910160a01b16906001600160501b0360a01b191617908160035580600455426005557f0559884fd3a460db3073b7fc896cc77986f16e378210ded43186175bf646fc5f60206001600160501b036040519442865260a01c1693a3005b634e487b7160e01b5f52601160045260245ffd5b60405162461bcd60e51b815260206004820152600e60248201526d24b73b30b634b21030b739bbb2b960911b6044820152606490fd5b60405162461bcd60e51b81526020600482015260126024820152712737ba1037b930b1b632903ab83230ba32b960711b6044820152606490fd5b506003546001600160a01b031633146101bf565b346100e35760203660031901126100e3576004356001600160a01b038116908190036100e357610319610626565b801561035757600380546001600160a01b031916821790557f5a39b8d3fd7361f3c5173afba233b7f1530567d03f9dfb0a2ca414960f08541d5f80a2005b60405162461bcd60e51b815260206004820152600f60248201526e24b73b30b634b2103ab83230ba32b960891b6044820152606490fd5b346100e35760203660031901126100e3576004356001600160501b0381168091036100e3576001600160501b0360035460a01c168091036103fe57600454600554604080516001600160501b0394909416808552602085019390935283018190526060830152608082015260a090f35b60405162461bcd60e51b8152602060048201526013602482015272526f756e64206e6f7420617661696c61626c6560681b6044820152606490fd5b346100e3575f3660031901126100e3575f546040516001600160a01b039091168152602090f35b346100e3575f3660031901126100e3576040515f600154908160011c6001831692831561058f575b60208210841461057b578185526020850193908115610562575060011461050d575b50829003601f01601f191682019167ffffffffffffffff8311818410176104f9576040918391828452602083525180918160208501528484015e5f828201840152601f01601f19168101030190f35b634e487b7160e01b5f52604160045260245ffd5b905060015f527fb10e2d527612073b26eecdfd717e6a320cf44b4afac2b0732d9fcbe2b7fa0cf65f905b82821061054c575060209150830101836104aa565b6001816020925483858901015201910190610537565b60ff1916845250151560051b83016020019050836104aa565b634e487b7160e01b5f52602260045260245ffd5b90607f1690610488565b346100e3575f3660031901126100e3576105b1610626565b5f80546001600160a01b0319811682556001600160a01b03167f8be0079c531659141344cd1fd0a4f28419497f9722a3daafe3b4186f6b6457e08280a3005b346100e3575f3660031901126100e3576020600254604051908152f35b346100e3575f3660031901126100e35780600860209252f35b5f546001600160a01b0316330361063957565b63118cdaa760e01b5f523360045260245ffdfea2646970667358221220b54b13dbfec04f416e598b1f93e5b86ed2c63ad815081099a93db5a9ece347bb64736f6c634300081c0033",
  "linkReferences": {},
  "deployedLinkReferences": {}
}